:100000000C9434000C94F1040C9451000C945100A5
:100010000C9451000C9451000C9451000C94090460
:100020000C9451000C9451000C9451000C94180540
:100030000C9451000C9451000C94CA040C9451007F
:100040000C9451000C9451000C9451000C945100EC
:100050000C9451000C9451000C9451000C945100DC
:100060000C9451000C94510011241FBECFEFD8E026
:10007000DEBFCDBF11E0A0E0B1E0ECE6FEE002C0E3
:1000800005900D92A230B107D9F721E0A2E0B1E0CE
:1000900001C01D92AA33B207E1F70E9422050C9419
:1000A00034070C940000ECE7F0E080818F778083C8
:1000B000808180648083EAE7F0E0808183608083D0
:1000C00080818B7F80838081806880830895811107
:1000D00006C0ECE7F0E08081807F80830AC0813039
:1000E00041F4ECE7F0E08081817F80838081816052
:1000F0008083EAE7F0E0808180648083808184FFF0
:10010000FDCF80917800909179000895BC0180E046
:1001100090E00E94D90520E030E040EA50E40E94DF
:10012000900620E030E040E85AE30E9490069B01F0
:10013000AC010E9439052DEC3CEC4CE45FE30E94DD
:100140008B0688233CF087E390E00E94EB0382E07B
:1001500090E0089582E490E00E94EB0381E090E05B
:100160000895CF93DF9300D000D0CDB7DEB784E001
:1001700080930D0183E08093100110920C01109286
:100180000B0110921401109213011092120110929F
:10019000110110920F0110920E011C821B821A8213
:1001A0001982312C01E010E00F2EF3E02F2EF02DFC
:1001B0000F2EC12CD12CE12CFFE3FF2EF02D0F2EA2
:1001C000FAE94F2EF9E95F2EF9E16F2EFFE37F2E5A
:1001D000F02D0F2EF3E38F2E982CA82CFFE3BF2ECB
:1001E000F02D02C009831A8380910D01823009F439
:1001F00038C120F4813009F46FC0F8CF833009F49E
:10020000E3C0843099F731104DC0A6E1B1E0CD9242
:10021000DD92ED92FC921397C0921A01D0921B01CD
:10022000E0921C01F0921D01C0921E01D0921F01AC
:10023000E0922001F0922101C0922201D09223018C
:10024000E0922401F0922501C0922601D09227016C
:10025000E0922801F0922901C0922A01D0922B014C
:10026000E0922C01F0922D01C0922E01D0922F012C
:10027000E0923001F0923101C0923201D09233010C
:10028000E0923401F0923501C0923601D0923701EC
:10029000E0923801F092390110920A010E94DD02C9
:1002A0003324339480910C01882309F49DCF10925C
:1002B0000C0180E00E9467000E948600809310017C
:1002C000813019F420920D018FCF823009F08CCF4C
:1002D00081E080930D0188CF8091130190911401EA
:1002E000892B09F059C00E94E50281E080930A0140
:1002F000E6E1F1E0C082D182E282F38240921A010B
:1003000050921B0160921C0170921D0180921E018F
:1003100090921F01A0922001B09221018DEC9CECE3
:10032000ACE4BFE38093220190932301A0932401C6
:10033000B093250186E696E6A6E6BFE38093260104
:1003400090932701A0932801B0932901C0922A011C
:10035000D0922B01E0922C01F0922D01C0922E013F
:10036000D0922F01E0923001F0923101C09232011F
:10037000D0923301E0923401F0923501C0923601FF
:10038000D0923701E0923801F09239010E94DD02EB
:10039000009313011093140180910C01882309F438
:1003A00023CF10920C0180E00E9467000E9486001B
:1003B00080931001813009F017CF20920D01109227
:1003C00012011092110110CF809111019091120130
:1003D000892B51F40E94E5020E9408030E941C032D
:1003E000009311011093120180910B01882309F4ED
:1003F000FBCE10920B0181E00E946700A981BA81B7
:10040000AB2B79F081E00E946700302F212F813DD6
:10041000934010F030E020E03B832C831A82198255
:10042000E3CE81E00E946700202F312F813D934071
:1004300010F020E030E04B815C81249FC001259FBB
:10044000900D349F900D1124019709F0CBCE52E00E
:1004500050930D0110920F0110920E0109831A831F
:10046000C3CE80910E0190910F01892B09F06CC0D1
:100470000E9429030E942F030E94480310920A0140
:100480008DEC9CECACECBDE3E6E1F1E08083918384
:10049000A283B3838DEC9CECACE4BEE380931A01A1
:1004A00090931B01A0931C01B0931D018AE999E967
:1004B000A9E9BEE380931E0190931F01A093200140
:1004C000B09321018DEC9CECACECBEE38093220157
:1004D00090932301A0932401B0932501C09226019B
:1004E000D0922701E0922801F092290140922A013E
:1004F00050922B0160922C0170922D0180922E015E
:1005000090922F01A0923001B09231018DEC9CECC1
:10051000ACE4BFE38093320190933301A0933401A4
:10052000B093350186E696E6A6E6BFE380933601F2
:1005300090933701A0933801B09339010E94DD02F6
:1005400000930E0110930F0180910C01882309F490
:100550004BCE10920C0180E00E9467000E94860042
:1005600080931001823009F03FCE81E080930D012D
:10057000109214011092130137CEE0EBF0E080816D
:10058000826080833081208181E090E002C0880F0A
:10059000991F3A95E2F78095909582238083E1EB4D
:1005A000F0E0808188708083E0E7F0E08081826005
:1005B000808381E08093B30008951092B200E1EB54
:1005C000F0E08081876080830895E1EBF0E0808136
:1005D000887F8083089584B5826084BD84B58E7FD2
:1005E00084BD85B5887085BDEEE6F0E080818260CF
:1005F00080838AE087BD089516BC85B5846085BD7B
:1006000085B58C7F85BD089585B5887F85BD0895A6
:10061000E0E8F0E0808183608083A1E8B0E08C9125
:1006200088618C9385E090E09093890080938800A6
:1006300080818064808308951092850010928400E8
:10064000E1E8F0E080818360808380818B7F80831C
:100650000895E1E8F0E08081887F80830895E0E8F4
:10066000F0E080818C7F8083E1E8F0E080818F7E04
:1006700080838081886080838BE197EB90938900F1
:1006800080938800EFE6F0E08081826080830895A7
:10069000E1E8F0E0808185608083808182708083E2
:1006A0000895E89AE9E6F0E0808182608083089509
:1006B0008FEF8AB987B984B98BB988B985B9389869
:1006C00040985298399808959093C5008093C4003B
:1006D00088E18093C10086E08093C2000895E0EC39
:1006E000F0E0908195FFFDCF8093C60008958F9232
:1006F0009F92AF92BF92CF92DF92EF92FF92CF93F1
:10070000DF934115510561057105A1F04A015B01B7
:10071000C82FD92FC12CD12C760189910E946F034B
:100720008FEFC81AD80AE80AF80A8C149D04AE04A0
:10073000BF0499F7DF91CF91FF90EF90DF90CF90BA
:10074000BF90AF909F908F900895CF92DF92EF92DD
:10075000FF92AC01892B31F4FB011082C12CD12C0A
:10076000760132C0FB01C12CD12C76019A01ADEC8F
:10077000BCEC0E941107969587959695879596955E
:1007800087959C01220F331F880F991F880F991F8F
:10079000880F991F820F931F9A01281B390BC901DB
:1007A000805D81939A010E941107AC01569547958F
:1007B00056954795569547953FEFC31AD30AE30AD6
:1007C000F30A4115510591F6C701B601FF90EF906C
:1007D000DF90CF900895CF93DF93CDB7DEB72A9700
:1007E0000FB6F894DEBF0FBECDBFBE016F5F7F4F67
:1007F0000E94A503AB01BC01CE0101960E947703C4
:100800002A960FB6F894DEBF0FBECDBFDF91CF9111
:1008100008951F920F920FB60F9211242F933F93BA
:100820004F935F936F937F938F939F93AF93BF93F8
:10083000EF93FF938091000190910101009789F55A
:100840008BB18F708BB9E0910601F0910701EE0F2B
:10085000FF1FEE0FFF1FEA5EFE4F208131814281B4
:10086000538160E070E080E89FE30E94380520E05B
:1008700030E048E152E40E9490060E94AA0560938D
:10088000B30081E090E0909301018093000180919A
:100890000801909109010196909309018093080144
:1008A00033C0019789F580910A01811104C08BB191
:1008B000806C8BB905C0813019F48BB180638BB922
:1008C0008091040190910501892B11F00E94FC0296
:1008D000E0910601F0910701EE0FFF1FEE0FFF1FE1
:1008E000EA5EFE4F20E030E048E152E46081718131
:1008F000828193810E9490060E94AA056093B300B2
:10090000109201011092000180910801909109015B
:100910000A9779F510920901109208018091060159
:1009200090910701019669E070E00E94FD069093A6
:10093000070180930601880F991F880F991FFC01FA
:10094000EA5EFE4F20E030E040E05FE360817181CD
:10095000828193810E94A505811107C081E090E00A
:10096000909305018093040104C010920501109238
:100970000401FF91EF91BF91AF919F918F917F9172
:100980006F915F914F913F912F910F900FBE0F90FC
:100990001F9018951F920F920FB60F9211242F934C
:1009A0003F934F935F936F937F938F939F93AF93F7
:1009B000BF93EF93FF9381E080930C010E940403A7
:1009C000FF91EF91BF91AF919F918F917F916F9127
:1009D0005F914F913F912F910F900FBE0F901F90FD
:1009E00018951F920F920FB60F9211242F938F9389
:1009F0009F938091020190910301883E934039F4C6
:100A000081E080930B01109203011092020180910A
:100A100002019091030101969093030180930201DA
:100A20009F918F912F910F900FBE0F901F9018954F
:100A30001F920F920FB60F9211240F900FBE0F90BE
:100A40001F9018950E9453000E94BD020E94EB0265
:100A50000E9408030E94580383E390E00E9464030D
:100A60000E94510378940E94B10080E090E00895C4
:100A70005058BB27AA270E9450050C9451060E948B
:100A8000430638F00E944A0620F039F49F3F19F4DB
:100A900026F40C9440060EF4E095E7FB0C943A061D
:100AA000E92F0E94620658F3BA176207730784079A
:100AB000950720F079F4A6F50C9484060EF4E095E1
:100AC0000B2EBA2FA02D0B01B90190010C01CA0108
:100AD000A0011124FF27591B99F0593F50F4503EB3
:100AE00068F11A16F040A22F232F342F4427585FA5
:100AF000F3CF469537952795A795F0405395C9F7BD
:100B00007EF41F16BA0B620B730B840BBAF0915074
:100B1000A1F0FF0FBB1F661F771F881FC2F70EC013
:100B2000BA0F621F731F841F48F4879577956795E6
:100B3000B795F7959E3F08F0B0CF9395880F08F0D2
:100B40009927EE0F9795879508950E94160608F449
:100B500081E008950E946A0688F09F5798F0B92FA7
:100B60009927B751B0F0E1F0660F771F881F991FE2
:100B70001AF0BA95C9F714C0B13091F00E948406FA
:100B8000B1E008950C948406672F782F8827B85F0A
:100B900039F0B93FCCF3869577956795B395D9F73A
:100BA0003EF490958095709561957F4F8F4F9F4F44
:100BB0000895E89409C097FB3EF490958095709550
:100BC00061957F4F8F4F9F4F9923A9F0F92F96E999
:100BD000BB279395F695879577956795B795F1110E
:100BE000F8CFFAF4BB0F11F460FF1BC06F5F7F4FAB
:100BF0008F4F9F4F16C0882311F096E911C07723BD
:100C000021F09EE8872F762F05C0662371F096E8C5
:100C1000862F70E060E02AF09A95660F771F881F94
:100C2000DAF7880F9695879597F90895990F000838
:100C3000550FAA0BE0E8FEEF16161706E807F907AE
:100C4000C0F012161306E407F50798F0621B730B49
:100C5000840B950B39F40A2661F0232B242B252BCA
:100C600021F408950A2609F4A140A6958FEF811D6D
:100C7000811D089597F99F6780E870E060E008950E
:100C80009FEF80EC089500240A94161617061806A4
:100C90000906089500240A94121613061406050680
:100CA0000895092E0394000C11F4882352F0BB0F11
:100CB00040F4BF2B11F460FF04C06F5F7F4F8F4F74
:100CC0009F4F089557FD9058440F551F59F05F3FAF
:100CD00071F04795880F97FB991F61F09F3F79F05E
:100CE00087950895121613061406551FF2CF4695E0
:100CF000F1DF08C0161617061806991FF1CF869562
:100D00007105610508940895E894BB276627772745
:100D1000CB0197F908950E94160608F48FEF089505
:100D20000E94A3060C9451060E94430638F00E94CC
:100D30004A0620F0952311F00C943A060C944006D4
:100D400011240C9485060E94620670F3959FC1F3EE
:100D5000950F50E0551F629FF001729FBB27F00D69
:100D6000B11D639FAA27F00DB11DAA1F649F6627BE
:100D7000B00DA11D661F829F2227B00DA11D621F0D
:100D8000739FB00DA11D621F839FA00D611D221FC7
:100D9000749F3327A00D611D231F849F600D211DAB
:100DA000822F762F6A2F11249F5750409AF0F1F02E
:100DB00088234AF0EE0FFF1FBB1F661F771F881F97
:100DC00091505040A9F79E3F510580F00C943A068F
:100DD0000C9485065F3FE4F3983ED4F386957795AF
:100DE0006795B795F795E7959F5FC1F7FE2B880F3D
:100DF000911D9695879597F9089597FB072E16F400
:100E0000009407D077FD09D00E94200707FC05D089
:100E10003EF4909581959F4F0895709561957F4F11
:100E20000895A29FB001B39FC001A39F700D811DC3
:100E30001124911DB29F700D811D1124911D0895E3
:100E4000AA1BBB1B51E107C0AA1FBB1FA617B707F0
:100E500010F0A61BB70B881F991F5A95A9F780950C
:0C0E60009095BC01CD010895F894FFCFDF
:020E6C00010083
:00000001FF
