:100000000C9434000C9451000C9451000C94510049
:100010000C9451000C9451000C9451000C9451001C
:100020000C9451000C9451000C9451000C949D01BF
:100030000C9451000C9451000C943E020C9451000D
:100040000C9451000C9451000C9451000C945100EC
:100050000C9451000C9451000C9451000C945100DC
:100060000C9451000C94510011241FBECFEFD8E026
:10007000DEBFCDBF11E0A0E0B1E0E2ECF8E002C0ED
:1000800005900D92A230B107D9F721E0A2E0B1E0CE
:1000900001C01D92AF32B207E1F70E9465020C94D5
:1000A0005F040C940000ECE7F0E080818F778083A0
:1000B000808180648083EAE7F0E0808183608083D0
:1000C00080818B7F80838081806880830895ECE7C6
:1000D000F0E09081892B8083EAE7F0E08081806402
:1000E0008083808184FFFDCF80917800909179009A
:1000F0000895CF93BC01660F771F660F771F860F99
:10010000971FBC01672F77276695669580E090E082
:100110000E9418039B01AC010E947802C1E02DEC03
:100120003CEC4CE45FE30E94E40218160CF4C0E0DF
:1001300081E08C2790E0CF91089583E080930801BF
:1001400082E0809309011092070100E010E0312C59
:1001500022242394CBE0D1E00F2EC12CD12CE12C12
:10016000FFE3FF2EF02D0F2EFAE98F2EF9E99F2ED7
:10017000F9E1AF2EFFE3BF2EF02D0F2EF3E34F2E4C
:10018000542C642CFFE37F2EF02D809108018823EE
:1001900009F446C08330D9F7311029C0C882D9820A
:1001A000EA82FB82CC82DD82EE82FF82C886D9861B
:1001B000EA86FB86CC86DD86EE86FF86C88AD98AEB
:1001C000EA8AFB8ACC8ADD8AEE8AFF8AC88ED98EBB
:1001D000EA8EFB8ECC8EDD8EEE8EFF8EC8A2D9A26B
:1001E000EAA2FBA2109206010E945A01322C8091D1
:1001F0000701882351F21092070180E00E946700F6
:100200000E94790080930901811104C082E08093EB
:100210000801BBCF813009F0B8CF10920801B5CFEB
:100220000115110509F0B1CF0E9467012092060166
:10023000C882D982EA82FB828C829D82AE82BF8292
:10024000488659866A867B868DEC9CECACE4BFE3DD
:100250008C879D87AE87BF8786E696E6A6E6BFE3D6
:10026000888B998BAA8BBB8BCC8ADD8AEE8AFF8A1E
:10027000C88ED98EEA8EFB8ECC8EDD8EEE8EFF8EF2
:10028000C8A2D9A2EAA2FBA20E945A0101E010E092
:100290007CCFE1E8F0E0808188608083EFE6F0E0E9
:1002A00080818260808381E090E0909389008093D8
:1002B000880008951092850010928400E1E8F0E033
:1002C00080818560808380818D7F80830895E1E8CF
:1002D000F0E08081887F8083089584B5826084BD4A
:1002E00084B58E7F84BD85B5887085BDEEE6F0E06F
:1002F0008081826080838AE087BD089516BC85B5C1
:10030000846085BD85B58C7F85BD089585B5887F62
:1003100085BD08958FEF8AB987B984B98BB988B93B
:1003200085B908959093C5008093C40088E18093B7
:10033000C10086E08093C20008951F920F920FB60D
:100340000F9211242F933F934F935F936F937F935B
:100350008F939F93AF93BF93EF93FF93809100018F
:1003600090910101009799F58BB1837C8BB9E09155
:100370000201F0910301EE0FFF1FEE0FFF1FE55F7B
:10038000FE4F208131814281538160E070E080E83E
:100390009FE30E94770220E030E048E152E40E94AF
:1003A000CA030E94E902709389006093880081E08B
:1003B00090E090930101809300018091040190915D
:1003C0000501019690930501809304012FC00197C8
:1003D00069F580910601811104C08BB18C608BB9E5
:1003E00005C0813019F48BB180638BB90E947E0106
:1003F000E0910201F0910301EE0FFF1FEE0FFF1FCE
:10040000E55FFE4F20E030E048E152E46081718119
:10041000828193810E94CA030E94E902709389003D
:1004200060938800109201011092000180910401F4
:10043000909105010A9789F4109205011092040128
:100440008091020190910301019669E070E00E94A1
:1004500037049093030180930201FF91EF91BF91C4
:10046000AF919F918F917F916F915F914F913F914C
:100470002F910F900FBE0F901F9018951F920F9203
:100480000FB60F9211242F933F934F935F936F9367
:100490007F938F939F93AF93BF93EF93FF9381E0ED
:1004A000809307010E948601FF91EF91BF91AF9168
:1004B0009F918F917F916F915F914F913F912F917C
:1004C0000F900FBE0F901F9018950E9453000E942E
:1004D00049010E946D010E948A0183E390E00E941D
:1004E000920178940E949D0080E090E00895505819
:1004F000BB27AA270E948F020C9490030E948203BC
:1005000038F00E94890320F039F49F3F19F426F453
:100510000C947F030EF4E095E7FB0C947903E92F2C
:100520000E94A10358F3BA1762077307840795075F
:1005300020F079F4A6F50C94C3030EF4E0950B2E8D
:10054000BA2FA02D0B01B90190010C01CA01A00125
:100550001124FF27591B99F0593F50F4503E68F180
:100560001A16F040A22F232F342F4427585FF3CFC1
:10057000469537952795A795F0405395C9F77EF492
:100580001F16BA0B620B730B840BBAF09150A1F0DB
:10059000FF0FBB1F661F771F881FC2F70EC0BA0F61
:1005A000621F731F841F48F4879577956795B795E9
:1005B000F7959E3F08F0B0CF9395880F08F09927E4
:1005C000EE0F9795879508950E94550308F481E0F2
:1005D00008950E94A90388F09F5798F0B92F992792
:1005E000B751B0F0E1F0660F771F881F991F1AF01E
:1005F000BA95C9F714C0B13091F00E94C303B1E0BD
:1006000008950C94C303672F782F8827B85F39F0BB
:10061000B93FCCF3869577956795B395D9F73EF4B6
:1006200090958095709561957F4F8F4F9F4F08955E
:10063000E89409C097FB3EF490958095709561957C
:100640007F4F8F4F9F4F9923A9F0F92F96E9BB2732
:100650009395F695879577956795B795F111F8CFAE
:10066000FAF4BB0F11F460FF1BC06F5F7F4F8F4F19
:100670009F4F16C0882311F096E911C0772321F00F
:100680009EE8872F762F05C0662371F096E8862FA7
:1006900070E060E02AF09A95660F771F881FDAF7FE
:1006A000880F9695879597F90895990F0008550F2B
:1006B000AA0BE0E8FEEF16161706E807F907C0F0E8
:1006C00012161306E407F50798F0621B730B840BF0
:1006D000950B39F40A2661F0232B242B252B21F4CA
:1006E00008950A2609F4A140A6958FEF811D811D6A
:1006F000089597F99F6780E870E060E008959FEFA4
:1007000080EC089500240A941616170618060906A8
:10071000089500240A941216130614060506089577
:10072000092E0394000C11F4882352F0BB0F40F4FF
:10073000BF2B11F460FF04C06F5F7F4F8F4F9F4F3F
:10074000089557FD9058440F551F59F05F3F71F0C1
:100750004795880F97FB991F61F09F3F79F0879528
:100760000895121613061406551FF2CF4695F1DFB1
:1007700008C0161617061806991FF1CF8695710541
:10078000610508940895E894BB2766277727CB0175
:1007900097F908950E94DD030C9490030E94820350
:1007A00038F00E94890320F0952311F00C9479030E
:1007B0000C947F0311240C94C4030E94A10370F3D2
:1007C000959FC1F3950F50E0551F629FF001729FF6
:1007D000BB27F00DB11D639FAA27F00DB11DAA1F05
:1007E000649F6627B00DA11D661F829F2227B00D52
:1007F000A11D621F739FB00DA11D621F839FA00DDD
:10080000611D221F749F3327A00D611D231F849F2C
:10081000600D211D822F762F6A2F11249F57504083
:100820009AF0F1F088234AF0EE0FFF1FBB1F661FFE
:10083000771F881F91505040A9F79E3F510580F0C7
:100840000C9479030C94C4035F3FE4F3983ED4F313
:10085000869577956795B795F795E7959F5FC1F76B
:10086000FE2B880F911D9695879597F9089597FB14
:10087000072E16F4009407D077FD09D00E944B0490
:1008800007FC05D03EF4909581959F4F0895709593
:1008900061957F4F0895AA1BBB1B51E107C0AA1F9A
:1008A000BB1FA617B70710F0A61BB70B881F991F11
:1008B0005A95A9F780959095BC01CD010895F894BB
:0208C000FFCF68
:0208C200010033
:00000001FF
