:100000000C9434000C9433050C9451000C94510062
:100010000C9451000C9451000C9451000C94300439
:100020000C9451000C9451000C9451000C945A05FE
:100030000C9451000C9451000C940C050C9451003C
:100040000C9451000C9451000C9451000C945100EC
:100050000C9451000C9451000C9451000C945100DC
:100060000C9451000C94510011241FBECFEFD8E026
:10007000DEBFCDBF11E0A0E0B1E0E2E3FFE002C0EF
:1000800005900D92A630B107D9F721E0A6E0B1E0C6
:1000900001C01D92A034B207E1F70E9485050C94BF
:1000A00097070C940000ECE7F0E080818F77808365
:1000B000808180648083EAE7F0E0808183608083D0
:1000C00080818B7F80838081806880830895811107
:1000D00006C0ECE7F0E08081807F80830AC0813039
:1000E00041F4ECE7F0E08081817F80838081816052
:1000F0008083EAE7F0E0808180648083808184FFF0
:10010000FDCF80917800909179000895BC0180E046
:1001100090E00E943C0620E030E040EA50E40E947B
:10012000F30620E030E040E85AE30E94F3069B012A
:10013000AC010E949C052DEC3CEC4CE45FE30E947A
:10014000EE06082E000C990B809590958827990F44
:10015000881F992701960895CF93DF9300D000D090
:10016000CDB7DEB784E08093130183E0809316015E
:10017000109212011092110110921A01109219019D
:10018000109218011092170110921501109214018B
:100190001C821B821A821982312C0F2EC12CD12C69
:1001A000E12CFFE3FF2EF02D0F2EFAE94F2EF9E997
:1001B0005F2EF9E16F2EFFE37F2EF02D0F2EF3E37C
:1001C0008F2E982CA82CFFE3BF2EF02D01E010E01D
:1001D0006894222422F802C009831A8380911301B3
:1001E00090E00E94120482E091E00E94740382E099
:1001F00091E00E94740380911301823009F440C1A0
:1002000020F4813009F475C0C3C1833009F4EBC018
:10021000843009F0BDC18DE490E00E9412043110D9
:100220004DC0ACE1B1E0CD92DD92ED92FC9213971E
:10023000C0922001D0922101E0922201F09223018C
:10024000C0922401D0922501E0922601F09227016C
:10025000C0922801D0922901E0922A01F0922B014C
:10026000C0922C01D0922D01E0922E01F0922F012C
:10027000C0923001D0923101E0923201F09233010C
:10028000C0923401D0923501E0923601F0923701EC
:10029000C0923801D0923901E0923A01F0923B01CC
:1002A000C0923C01D0923D01E0923E01F0923F01AC
:1002B000109210010E94EB023324339480911201BA
:1002C000882309F48BCF1092120180E00E9467000E
:1002D0000E94860080931601813021F483E0809390
:1002E00013017CCF823009F079CFB1E0B0931301D4
:1002F00075CF8091190190911A01892B09F05AC08C
:100300000E94F302E1E0E0931001ACE1B1E0CD9294
:10031000DD92ED92FC9213974092200150922101C0
:100320006092220170922301809224019092250113
:10033000A0922601B09227018DEC9CECACE4BFE3C7
:100340008093280190932901A0932A01B0932B0157
:1003500086E696E6A6E6BFE380932C0190932D01F6
:10036000A0932E01B0932F01C0923001D0923101A1
:10037000E0923201F0923301C0923401D092350103
:10038000E0923601F0923701C0923801D0923901E3
:10039000E0923A01F0923B01C0923C01D0923D01C3
:1003A000E0923E01F0923F010E94EB02009319019E
:1003B00010931A0180911201882309F40FCF109233
:1003C000120180E00E9467000E948600809316015F
:1003D000813009F003CF83E080931301109218015C
:1003E00010921701FBCE8091170190911801892B73
:1003F00051F40E94F3020E9419030E9435030093F6
:1004000017011093180180911101882309F4E6CE99
:100410001092110181E00E946700A981BA81AB2B83
:1004200079F081E00E946700302F212F813D9340B9
:1004300010F030E020E03B832C831A821982CECE6C
:1004400081E00E946700202F312F813D934010F002
:1004500020E030E04B815C81249FC001259F900DFE
:10046000349F900D1124019709F0B6CE82E080935D
:100470001301109215011092140109831A83AECE54
:100480008091140190911501892B09F068C00E9498
:100490004203109210018DEC9CECACECBDE3ECE15E
:1004A000F1E080839183A283B3838DEC9CECACE478
:1004B000BEE38093200190932101A0932201B09389
:1004C00023018AE999E9A9E9BEE380932401909385
:1004D0002501A0932601B09327018DEC9CECACEC98
:1004E000BEE38093280190932901A0932A01B09341
:1004F0002B01C0922C01D0922D01E0922E01F0929E
:100500002F0140923001509231016092320170927D
:1005100033018092340190923501A0923601B0925D
:1005200037018DEC9CECACE4BFE3809338019093F1
:100530003901A0933A01B0933B0186E696E6A6E620
:10054000BFE380933C0190933D01A0933E01B093A3
:100550003F010E94EB02009314011093150180915A
:100560001201882309F43ACE1092120180E00E9411
:1005700067000E94860080931601823009F02ECE1B
:1005800091E09093130110921A011092190126CE56
:100590002092130123CEE0EBF0E080818260808323
:1005A0003081208181E090E002C0880F991F3A9548
:1005B000E2F78095909582238083E1EBF0E08081E3
:1005C00088708083E0E7F0E080818260808381E052
:1005D0008093B30008951092B200E1EBF0E08081C7
:1005E000876080830895E1EBF0E08081887F8083DD
:1005F0008BB18F708BB9089584B5826084BD84B54A
:100600008E7F84BD85B5887085BDEEE6F0E0808183
:10061000826080838AE087BD089516BC85B58460BA
:1006200085BD85B58C7F85BD089585B5887F85BDE1
:100630000895E0E8F0E0808183608083A1E8B0E085
:100640008C9188618C9385E090E0909389008093F1
:100650008800AFE6B0E08C918D7F8C9380818064C0
:10066000808380818F778083089510928500109217
:100670008400E1E8F0E080818360808380818B7F6B
:1006800080830895E1E8F0E08081887F8083089589
:10069000E1E8F0E08081887F80830895E89AE9E6C8
:1006A000F0E080818260808308958FEF8AB987B9F6
:1006B00084B98BB988B985B93898409852983998D7
:1006C00008959093C5008093C40088E18093C10091
:1006D00086E08093C2000895E0ECF0E0908195FF01
:1006E000FDCF8093C6000895EF92FF920F931F9362
:1006F000CF93DF938C017C01C0E0D0E006C0F7010E
:1007000081917F010E946C032196F80101900020E5
:10071000E9F73197E01BF10BCE17DF0780F3DF918C
:10072000CF911F910F91FF90EF900895E0ECF0E0D2
:10073000908195FFFDCF8093C60008958F929F9280
:10074000AF92BF92CF92DF92EF92FF92CF93DF935F
:100750004115510561057105A1F04A015B01C82FE2
:10076000D92FC12CD12C760189910E9496038FEF4D
:10077000C81AD80AE80AF80A8C149D04AE04BF040B
:1007800099F7DF91CF91FF90EF90DF90CF90BF90DE
:10079000AF909F908F900895CF92DF92EF92FF924B
:1007A000AC01892B31F4FB011082C12CD12C7601D4
:1007B00032C0FB01C12CD12C76019A01ADECBCEC0E
:1007C0000E94740796958795969587959695879537
:1007D0009C01220F331F880F991F880F991F880FC4
:1007E000991F820F931F9A01281B390BC901805D45
:1007F00081939A010E947407AC01569547955695CE
:100800004795569547953FEFC31AD30AE30AF30A73
:100810004115510591F6C701B601FF90EF90DF90A9
:10082000CF900895CF93DF93CDB7DEB72A970FB659
:10083000F894DEBF0FBECDBFBE016F5F7F4F0E9439
:10084000CC03AB01BC01CE0101960E949E032A9607
:100850000FB6F894DEBF0FBECDBFDF91CF910895E4
:100860001F920F920FB60F9211242F933F934F9325
:100870005F936F937F938F939F93AF93BF93EF9308
:10088000FF938091000190910101009789F58BB150
:100890008F708BB9E0910C01F0910D01EE0FFF1FED
:1008A000EE0FFF1FE45EFE4F2081318142815381B4
:1008B00060E070E080E89FE30E949B0520E030E06C
:1008C00048E152E40E94F3060E940D066093B300D3
:1008D00081E090E0909301018093000180910E01EE
:1008E00090910F01019690930F0180930E013CC0EF
:1008F0000197D1F58091100181110DC08091060101
:1009000090910701019690930701809306018BB1A6
:10091000806C8BB905C0813019F48BB180638BB9C1
:1009200080910A0190910B01892B11F00E940D0317
:10093000E0910C01F0910D01EE0FFF1FEE0FFF1F74
:10094000E45EFE4F20E030E048E152E460817181D6
:10095000828193810E94F3060E940D066093B3008A
:10096000109201011092000180910E0190910F01EF
:100970000A9779F510920F0110920E0180910C01E7
:1009800090910D01019669E070E00E9460079093DC
:100990000D0180930C01880F991F880F991FFC018E
:1009A000E45EFE4F20E030E040E05FE36081718173
:1009B000828193810E940806811107C081E090E046
:1009C00090930B0180930A0104C010920B011092C6
:1009D0000A0180910601909107018436910559F42E
:1009E00083E0809313011092180110921701109266
:1009F000070110920601FF91EF91BF91AF919F9176
:100A00008F917F916F915F914F913F912F910F90B7
:100A10000FBE0F901F9018951F920F920FB60F9256
:100A200011242F933F934F935F936F937F938F93F3
:100A30009F93AF93BF93EF93FF9381E08093120155
:100A40000E941503FF91EF91BF91AF919F918F91FC
:100A50007F916F915F914F913F912F910F900FBEBA
:100A60000F901F9018951F920F920FB60F9211249E
:100A70002F938F939F938091080190910901883E55
:100A8000934039F481E08093110110920901109292
:100A90000801809108019091090101969093090144
:100AA000809308019F918F912F910F900FBE0F900F
:100AB0001F9018951F920F920FB60F9211242F932B
:100AC0003F934F935F936F937F938F939F93AF93D6
:100AD000BF93EF93FF9383E080931301109218016B
:100AE000109217010E944803FF91EF91BF91AF91BF
:100AF0009F918F917F916F915F914F913F912F9136
:100B00000F900FBE0F901F9018950E9453000E94E7
:100B1000CB020E94FC020E9419030E94550383E34A
:100B200090E00E9461030E944E0378940E94AC0002
:100B300080E090E008955058BB27AA270E94B30593
:100B40000C94B4060E94A60638F00E94AD0620F070
:100B500039F49F3F19F426F40C94A3060EF4E095A3
:100B6000E7FB0C949D06E92F0E94C50658F3BA17BF
:100B7000620773078407950720F079F4A6F50C94B3
:100B8000E7060EF4E0950B2EBA2FA02D0B01B9014C
:100B900090010C01CA01A0011124FF27591B99F0F3
:100BA000593F50F4503E68F11A16F040A22F232FFF
:100BB000342F4427585FF3CF469537952795A7954F
:100BC000F0405395C9F77EF41F16BA0B620B730BF6
:100BD000840BBAF09150A1F0FF0FBB1F661F771F67
:100BE000881FC2F70EC0BA0F621F731F841F48F41C
:100BF000879577956795B795F7959E3F08F0B0CFA5
:100C00009395880F08F09927EE0F9795879508958B
:100C10000E94790608F481E008950E94CD0688F0CC
:100C20009F5798F0B92F9927B751B0F0E1F0660FB0
:100C3000771F881F991F1AF0BA95C9F714C0B130F1
:100C400091F00E94E706B1E008950C94E706672F43
:100C5000782F8827B85F39F0B93FCCF38695779520
:100C60006795B395D9F73EF4909580957095619509
:100C70007F4F8F4F9F4F0895E89409C097FB3EF434
:100C800090958095709561957F4F8F4F9F4F9923D9
:100C9000A9F0F92F96E9BB279395F6958795779557
:100CA0006795B795F111F8CFFAF4BB0F11F460FF17
:100CB0001BC06F5F7F4F8F4F9F4F16C0882311F06F
:100CC00096E911C0772321F09EE8872F762F05C083
:100CD000662371F096E8862F70E060E02AF09A951E
:100CE000660F771F881FDAF7880F9695879597F913
:100CF0000895990F0008550FAA0BE0E8FEEF1616AD
:100D00001706E807F907C0F012161306E407F507FF
:100D100098F0621B730B840B950B39F40A2661F073
:100D2000232B242B252B21F408950A2609F4A14016
:100D3000A6958FEF811D811D089597F99F6780E823
:100D400070E060E008959FEF80EC089500240A941D
:100D50001616170618060906089500240A94121696
:100D60001306140605060895092E0394000C11F4C9
:100D7000882352F0BB0F40F4BF2B11F460FF04C076
:100D80006F5F7F4F8F4F9F4F089557FD9058440FCF
:100D9000551F59F05F3F71F04795880F97FB991FDA
:100DA00061F09F3F79F08795089512161306140697
:100DB000551FF2CF4695F1DF08C016161706180624
:100DC000991FF1CF86957105610508940895E894FF
:100DD000BB2766277727CB0197F908950E947906EC
:100DE00008F48FEF08950E9406070C94B4060E9441
:100DF000A60638F00E94AD0620F0952311F00C9461
:100E00009D060C94A30611240C94E8060E94C506C6
:100E100070F3959FC1F3950F50E0551F629FF0014D
:100E2000729FBB27F00DB11D639FAA27F00DB11D66
:100E3000AA1F649F6627B00DA11D661F829F2227EF
:100E4000B00DA11D621F739FB00DA11D621F839F76
:100E5000A00D611D221F749F3327A00D611D231F4C
:100E6000849F600D211D822F762F6A2F11249F579A
:100E700050409AF0F1F088234AF0EE0FFF1FBB1F9D
:100E8000661F771F881F91505040A9F79E3F51055C
:100E900080F00C949D060C94E8065F3FE4F3983EC6
:100EA000D4F3869577956795B795F795E7959F5F06
:100EB000C1F7FE2B880F911D9695879597F9089598
:100EC00097FB072E16F4009407D077FD09D00E94F7
:100ED000830707FC05D03EF4909581959F4F0895B8
:100EE000709561957F4F0895A29FB001B39FC00197
:100EF000A39F700D811D1124911DB29F700D811D46
:100F00001124911D0895AA1BBB1B51E107C0AA1F04
:100F1000BB1FA617B70710F0A61BB70B881F991F9A
:100F20005A95A9F780959095BC01CD010895F89444
:020F3000FFCFF1
:060F320001000A0D0000A1
:00000001FF
