S01C00004D61676E657469635F446F6F725F4F70656E65722E7372656325
S11300000C9434000C9449000C9449000C9449005D
S11300100C9449000C9449000C9449000C94490038
S11300200C9449000C9449000C9449000C94B000C1
S11300300C9449000C9449000C9449000C94490018
S11300400C9449000C9449000C9449000C94490008
S11300500C9449000C9449000C9449000C944900F8
S11300600C9449000C94490011241FBECFEFD8E032
S1130070DEBFCDBF11E0A0E0B1E0EAEEF1E002C0E6
S113008005900D92A232B107D9F70E94E3000C94B7
S1130090F3000C940000ECE7F0E080818F7780831C
S11300A0808180648083EAE7F0E0808183608083DC
S11300B080818B7F80838081806880830895E1E8DC
S11300C0F0E0808188608083AFE6B0E08C9182604C
S11300D08C9384E190E090938900809388008081E0
S11300E08560808308958FEF8AB987B984B98BB905
S11300F088B985B908959093C5008093C40088E1B8
S11301008093C10086E08093C2000895E0ECF0E0A3
S1130110908195FFFDCF8093C6000895EF92FF92E2
S11301200F931F93CF93DF938C017C01C0E0D0E049
S113013006C0F70181917F010E9486002196F80193
S113014001900020E9F73197E01BF10BCE17DF0790
S113015080F3DF91CF911F910F91FF90EF9008955D
S11301601F920F920FB60F9211248F939F93809139
S1130170000190910101009781F48BB1837C8BB9CC
S113018083E190E0909389008093880081E090E07F
S113019090930101809300010FC0019769F48BB122
S11301A08C638BB983E190E09093890080938800FD
S11301B010920101109200019F918F910F900FBE38
S11301C00F901F9018950E944B000E945F000E94A0
S11301D0730083E390E00E947B00789482E091E0D6
S10D01E00E948E00FFCFF894FFCFB9
S11301EA010048692057656C636F6D6520746F2040
S11301FA7468652050726F746575732044656D6FF9
S105020A0A00E4
S9030000FC
