:100000000C9434000C9449000C9449000C94490061
:100010000C9449000C9449000C9449000C9449003C
:100020000C9449000C9449000C9449000C94320142
:100030000C9449000C9449000C9449000C9449001C
:100040000C9449000C9449000C9449000C9449000C
:100050000C9449000C9449000C9449000C944900FC
:100060000C9449000C94490011241FBECFEFD8E036
:10007000DEBFCDBF11E0A0E0B1E0EEE0F3E002C0F2
:1000800005900D92A230B107D9F70E9465010C943A
:1000900085010C940000ECE7F0E080818F7780838D
:1000A000808180648083EAE7F0E0808183608083E0
:1000B00080818B7F80838081806880830895ECE7D6
:1000C000F0E09081892B8083EAE7F0E08081806412
:1000D0008083808184FFFDCF8091780090917900AA
:1000E0000895E1E8F0E0808188608083AFE6B0E0C9
:1000F0008C9182608C9384E190E09093890080934E
:10010000880080818560808308958FEF8AB987B9E0
:1001100084B98BB988B985B908959093C500809347
:10012000C40088E18093C10086E08093C2000895F6
:10013000E0ECF0E0908195FFFDCF8093C60008953C
:100140008F929F92AF92BF92CF92DF92EF92FF92E7
:10015000CF93DF934115510561057105A1F04A0167
:100160005B01C82FD92FC12CD12C760189910E9417
:1001700098008FEFC81AD80AE80AF80A8C149D0470
:10018000AE04BF0499F7DF91CF91FF90EF90DF901D
:10019000CF90BF90AF909F908F900895CF92DF92B5
:1001A000EF92FF92AC01892B31F4FB011082C12C3C
:1001B000D12C760132C0FB01C12CD12C76019A01E1
:1001C000ADECBCEC0E947601969587959695879547
:1001D000969587959C01220F331F880F991F880FD2
:1001E000991F880F991F820F931F9A01281B390BA3
:1001F000C901805D81939A010E947601AC015695F8
:10020000479556954795569547953FEFC31AD30A9C
:10021000E30AF30A4115510591F6C701B601FF90B3
:10022000EF90DF90CF900895CF93DF93CDB7DEB7F7
:100230002A970FB6F894DEBF0FBECDBFBE016F5F29
:100240007F4F0E94CE00AB01BC01CE0101960E94FF
:10025000A0002A960FB6F894DEBF0FBECDBFDF9187
:10026000CF9108951F920F920FB60F9211248F9382
:100270009F938091000190910101009781F48BB1CF
:10028000837C8BB983E190E0909389008093880010
:1002900081E090E090930101809300010FC00197ED
:1002A00069F48BB18C638BB983E190E09093890002
:1002B0008093880010920101109200019F918F910C
:1002C0000F900FBE0F901F9018950E944B000E9438
:1002D00071000E94850083E390E00E948D00789475
:1002E00080E00E945F000E941401FFCFA29FB00136
:1002F000B39FC001A39F700D811D1124911DB29F5A
:0E030000700D811D1124911D0895F894FFCFFA
:02030E000100EC
:00000001FF
