:100000000C9434000C946D050C9494050C945100E0
:100010000C9451000C9451000C9451000C947104F8
:100020000C9451000C9451000C9451000C94B805A0
:100030000C9451000C9451000C943D050C9451000B
:100040000C9451000C9451000C9451000C945100EC
:100050000C9451000C9451000C9451000C945100DC
:100060000C9451000C94510011241FBECFEFD8E026
:10007000DEBFCDBF11E0A0E0B1E0ECECF0E102C0EA
:1000800005900D92A630B107D9F721E0A6E0B1E0C6
:1000900001C01D92A034B207E1F70E94E0050C9464
:1000A00064080C940000ECE7F0E080818F77808397
:1000B000808180648083EAE7F0E0808183608083D0
:1000C00080818B7F80838081806880830895811107
:1000D00006C0ECE7F0E08081807F808315C081302E
:1000E00049F4ECE7F0E08081817F8083808181604A
:1000F00080830AC0823041F4ECE7F0E080818260C6
:1001000080838081827F8083EAE7F0E08081806461
:100110008083808184FFFDCF809178009091790069
:100120000895BC0180E090E00E94090720E030E0E3
:1001300040EA50E40E94C00720E030E040E85AE383
:100140000E94C00723EC35EF48E450E40E946806A3
:100150009B01AC010E94F70520E030E040E85FE33E
:100160000E94BB07082E000C990B8095909588275C
:10017000990F881F992701960895CF93DF9300D098
:1001800000D0CDB7DEB784E08093130183E0809385
:100190001601109212011092110110921A01109280
:1001A0001901109218011092170110921501109266
:1001B000140181E090E09093100180930F011A8266
:1001C00019821C821B82212C0F2EC12CD12CE12CD8
:1001D000FFE3FF2EF02D0F2EFAE98F2EF9E99F2E67
:1001E000F9E1AF2EFFE3BF2EF02D0F2EF3E34F2EDC
:1001F000542C642CFFE37F2EF02D01E010E0689476
:10020000332432F802C01C830B83809113018230A7
:1002100009F449C120F4813009F471C0CCC18330A4
:1002200009F4F5C0843009F0C6C121104DC0ACE11D
:10023000B1E0CD92DD92ED92FC921397C092200135
:10024000D0922101E0922201F0922301C092240178
:10025000D0922501E0922601F0922701C092280158
:10026000D0922901E0922A01F0922B01C0922C0138
:10027000D0922D01E0922E01F0922F01C092300118
:10028000D0923101E0923201F0923301C0923401F8
:10029000D0923501E0923601F0923701C0923801D8
:1002A000D0923901E0923A01F0923B01C0923C01B8
:1002B000D0923D01E0923E01F0923F0110920E017A
:1002C0000E94FE022224239480911201882309F4C3
:1002D0009CCF1092120180E00E9467000E94910062
:1002E00080931601813021F483E0809313018DCF38
:1002F000823009F08ACFB1E0B093130186CF8091AC
:10030000190190911A01892B09F068C00E94060317
:10031000E1E0E0930E01ACE1B1E0CD92DD92ED922F
:10032000FC9213978092200190922101A0922201C9
:10033000B09223014092240150922501609226013F
:10034000709227018DEC9CECACE4BFE38093280114
:1003500090932901A0932A01B0932B0186E696E69B
:10036000A6E6BFE380932C0190932D01A0932E016C
:10037000B0932F01C0923001D0923101E09232014E
:10038000F0923301C0923401D0923501E0923601EF
:10039000F0923701C0923801D0923901E0923A01CF
:1003A000F0923B01C0923C01D0923D01E0923E01AF
:1003B000F0923F010E945B030E94740310931001AE
:1003C00000930F0180910F0190911001892BD1F7BB
:1003D0000E94FE0210931A010093190180911201EC
:1003E000882309F412CF1092120180E00E94670066
:1003F0000E94910080931601813009F006CF83E0BE
:10040000809313011092180110921701FECE809173
:10041000170190911801892B51F40E9406030E9444
:100420002C030E9448031093180100931701809138
:100430001101882309F4E9CE1092110182E00E9493
:100440006700AB81BC81AB2B79F082E00E94670032
:10045000302F212F813D934010F030E020E0398390
:100460002A831C821B82D1CE82E00E946700980101
:10047000813D934010F020E030E049815A81249F73
:10048000C001259F900D349F900D1124019709F014
:10049000BACE82E0809313011092150110921401DC
:1004A0001C830B83B2CE8091140190911501892B8E
:1004B00009F068C00E94550310920E018DEC9CEC6F
:1004C000ACECBDE3ECE1F1E080839183A283B383E4
:1004D0008DEC9CECACE4BEE3809320019093210171
:1004E000A0932201B09323018AE999E9A9E9BEE327
:1004F0008093240190932501A0932601B0932701B6
:100500008DEC9CECACECBEE3809328019093290128
:10051000A0932A01B0932B01C0922C01D0922D01FF
:10052000E0922E01F0922F018092300190923101E1
:10053000A0923201B09233014092340150923501C1
:1005400060923601709237018DEC9CECACE4BFE315
:100550008093380190933901A0933A01B0933B0105
:1005600086E696E6A6E6BFE380933C0190933D01C4
:10057000A0933E01B0933F010E94FE02109315012B
:100580000093140180911201882309F43ECE109249
:10059000120180E00E9467000E9491008093160182
:1005A000823009F032CE91E09093130110921A013B
:1005B000109219012ACE3092130127CEE0EBF0E021
:1005C0008081826080833081208181E090E002C060
:1005D000880F991F3A95E2F7809590958223808342
:1005E000E1EBF0E0808188708083E0E7F0E08081DB
:1005F000826080838AE08093B30008951092B200F5
:10060000E1EBF0E08081876080830895E1EBF0E02A
:100610008081887F80838BB18F708BB9089584B57A
:10062000826084BD84B58E7F84BD85B5887085BDAC
:10063000EEE6F0E080818260808381E087BD0895EE
:1006400016BC85B5846085BD85B58C7F85BD089554
:1006500085B5887F85BD0895E0E8F0E080818360FE
:100660008083A1E8B0E08C9188618C9385E090E074
:100670009093890080938800AFE6B0E08C918D7FE5
:100680008C9380818064808380818F7780830895BC
:100690001092850010928400E1E8F0E08081836090
:1006A000808380818B7F80830895E1E8F0E0808102
:1006B000887F80830895E0E8F0E080818C7F8083EC
:1006C000E1E8F0E080818F7E808380818860808394
:1006D000EFE6F0E080818260808380E197E2909392
:1006E00089008093880008951092850010928400FC
:1006F000E1E8F0E080818560808380818D7F808368
:100700000895E1E8F0E08081887F80830895E89A89
:10071000E9E6F0E0808182608083E99A80818C60E4
:10072000808308958FEF8AB987B984B98BB988B966
:1007300085B9389840984198389839983A9852989D
:10074000539808959093C5008093C40088E18093E6
:10075000C10086E08093C2000895E0ECF0E0908153
:1007600095FFFDCF8093C6000895EF92FF920F93FF
:100770001F93CF93DF938C017C01C0E0D0E006C0D3
:10078000F70181917F010E94AD032196F80101904C
:100790000020E9F73197E01BF10BCE17DF0780F35C
:1007A000DF91CF911F910F91FF90EF900895E0ECB2
:1007B000F0E0908195FFFDCF8093C60008958F9261
:1007C0009F92AF92BF92CF92DF92EF92FF92CF9320
:1007D000DF934115510561057105A1F04A015B01E7
:1007E000C82FD92FC12CD12C760189910E94D70313
:1007F0008FEFC81AD80AE80AF80A8C149D04AE04D0
:10080000BF0499F7DF91CF91FF90EF90DF90CF90E9
:10081000BF90AF909F908F900895CF92DF92EF920C
:10082000FF92AC01892B31F4FB011082C12CD12C39
:10083000760132C0FB01C12CD12C76019A01ADECBE
:10084000BCEC0E944108969587959695879596955C
:1008500087959C01220F331F880F991F880F991FBE
:10086000880F991F820F931F9A01281B390BC9010A
:10087000805D81939A010E944108AC01569547958D
:1008800056954795569547953FEFC31AD30AE30A05
:10089000F30A4115510591F6C701B601FF90EF909B
:1008A000DF90CF900895CF93DF93CDB7DEB72A972F
:1008B0000FB6F894DEBF0FBECDBFBE016F5F7F4F96
:1008C0000E940D04AB01BC01CE0101960E94DF0322
:1008D0002A960FB6F894DEBF0FBECDBFDF91CF9141
:1008E00008951F920F920FB60F9211242F933F93EA
:1008F0004F935F936F937F938F939F93AF93BF9328
:10090000EF93FF938091000190910101009789F589
:100910008BB18F708BB9E0910A01F0910B01EE0F52
:10092000FF1FEE0FFF1FE45EFE4F208131814281E9
:10093000538160E070E080E89FE30E94F60520E0CC
:1009400030E04CE152E40E94C0070E94DA06609356
:10095000B30081E090E090930101809300018091C9
:100960000C0190910D01019690930D0180930C0163
:1009700034C0019791F580910E0181110DC08091D5
:100980000801909109010196909309018093080153
:100990008BB1806C8BB905C0813019F48BB1806349
:1009A0008BB9E0910A01F0910B01EE0FFF1FEE0FE2
:1009B000FF1FE45EFE4F20E030E04CE152E4608136
:1009C0007181828193810E94C0070E94DA06609340
:1009D000B300109201011092000180910C019091DE
:1009E0000D010A9739F510920D0110920C018091BA
:1009F0000A0190910B01019669E070E00E942D08B8
:100A000090930B0180930A01880F991F880F991FFB
:100A1000FC01E45EFE4F20E030E040E05FE36081F7
:100A20007181828193810E946306811102C0E99ADB
:100A300001C0E998809108019091090184369105DF
:100A400059F483E08093130110921801109217015A
:100A50001092090110920801FF91EF91BF91AF919F
:100A60009F918F917F916F915F914F913F912F91C6
:100A70000F900FBE0F901F9018951F920F920FB6F8
:100A80000F9211242F933F934F935F936F937F9314
:100A90008F939F93AF93BF93EF93FF9381E08093E6
:100AA000120180E00E9467000E94530482E091E0FE
:100AB0000E94B5030E942803FF91EF91BF91AF916F
:100AC0009F918F917F916F915F914F913F912F9166
:100AD0000F900FBE0F901F9018951F920F920FB698
:100AE0000F9211242F938F939F93809106019091E1
:100AF0000701883E934039F481E080931101109200
:100B0000070110920601809106019091070101965C
:100B100090930701809306019F918F912F910F90E1
:100B20000FBE0F901F9018951F920F920FB60F9245
:100B300011242F933F934F935F936F937F938F93E2
:100B40009F93AF93BF93EF93FF930E942003FF9176
:100B5000EF91BF91AF919F918F917F916F915F9135
:100B60004F913F912F910F900FBE0F901F901895AE
:100B70001F920F920FB60F9211242F933F934F9312
:100B80005F936F937F938F939F93AF93BF93EF93F5
:100B9000FF931092100110920F010E948103FF91A8
:100BA000EF91BF91AF919F918F917F916F915F91E5
:100BB0004F913F912F910F900FBE0F901F9018955E
:100BC0000E9453000E94DE020E940F030E942C0329
:100BD0000E94920383E390E00E94A2030E94870395
:100BE00078940E94BD0080E090E008955058BB27A3
:100BF000AA270E940E060C9481070E94730738F002
:100C00000E947A0720F039F49F3F19F426F40C94DF
:100C100070070EF4E095E7FB0C946A07E92F0E9439
:100C2000920758F3BA17620773078407950720F0F5
:100C300079F4A6F50C94B4070EF4E0950B2EBA2FB8
:100C4000A02D0B01B90190010C01CA01A0011124D2
:100C5000FF27591B99F0593F50F4503E68F11A167E
:100C6000F040A22F232F342F4427585FF3CF46950F
:100C700037952795A795F0405395C9F77EF41F1631
:100C8000BA0B620B730B840BBAF09150A1F0FF0FFB
:100C9000BB1F661F771F881FC2F70EC0BA0F621FE7
:100CA000731F841F48F4879577956795B795F795D7
:100CB0009E3F08F0B0CF9395880F08F09927EE0F6C
:100CC0009795879508950E94460708F481E0089556
:100CD0000E947C060C9481070E947A0758F00E94BB
:100CE000730740F029F45F3F29F00C946A07511113
:100CF0000C94B5070C9470070E94920768F399232F
:100D0000B1F3552391F3951B550BBB27AA27621707
:100D10007307840738F09F5F5F4F220F331F441F14
:100D2000AA1FA9F335D00E2E3AF0E0E832D0915048
:100D30005040E695001CCAF72BD0FE2F29D0660F35
:100D4000771F881FBB1F261737074807AB07B0E878
:100D500009F0BB0B802DBF01FF2793585F4F3AF07E
:100D60009E3F510578F00C946A070C94B5075F3FDD
:100D7000E4F3983ED4F3869577956795B795F79504
:100D80009F5FC9F7880F911D9695879597F90895EC
:100D9000E1E0660F771F881FBB1F62177307840788
:100DA000BA0720F0621B730B840BBA0BEE1F88F797
:100DB000E09508950E949A0788F09F5798F0B92F00
:100DC0009927B751B0F0E1F0660F771F881F991F80
:100DD0001AF0BA95C9F714C0B13091F00E94B40767
:100DE000B1E008950C94B407672F782F8827B85F77
:100DF00039F0B93FCCF3869577956795B395D9F7D8
:100E00003EF490958095709561957F4F8F4F9F4FE1
:100E10000895E89409C097FB3EF4909580957095ED
:100E200061957F4F8F4F9F4F9923A9F0F92F96E936
:100E3000BB279395F695879577956795B795F111AB
:100E4000F8CFFAF4BB0F11F460FF1BC06F5F7F4F48
:100E50008F4F9F4F16C0882311F096E911C077235A
:100E600021F09EE8872F762F05C0662371F096E863
:100E7000862F70E060E02AF09A95660F771F881F32
:100E8000DAF7880F9695879597F90895990F0008D6
:100E9000550FAA0BE0E8FEEF16161706E807F9074C
:100EA000C0F012161306E407F50798F0621B730BE7
:100EB000840B950B39F40A2661F0232B242B252B68
:100EC00021F408950A2609F4A140A6958FEF811D0B
:100ED000811D089597F99F6780E870E060E00895AC
:100EE0009FEF80EC089500240A9416161706180642
:100EF0000906089500240A9412161306140605061E
:100F00000895092E0394000C11F4882352F0BB0FAE
:100F100040F4BF2B11F460FF04C06F5F7F4F8F4F11
:100F20009F4F089557FD9058440F551F59F05F3F4C
:100F300071F04795880F97FB991F61F09F3F79F0FB
:100F400087950895121613061406551FF2CF46957D
:100F5000F1DF08C0161617061806991FF1CF8695FF
:100F60007105610508940895E894BB2766277727E3
:100F7000CB0197F908950E94460708F48FEF089572
:100F80000E94D3070C9481070E94730738F00E94D7
:100F90007A0720F0952311F00C946A070C947007DF
:100FA00011240C94B5070E94920770F3959FC1F32A
:100FB000950F50E0551F629FF001729FBB27F00D07
:100FC000B11D639FAA27F00DB11DAA1F649F66275C
:100FD000B00DA11D661F829F2227B00DA11D621FAB
:100FE000739FB00DA11D621F839FA00D611D221F65
:100FF000749F3327A00D611D231F849F600D211D49
:10100000822F762F6A2F11249F5750409AF0F1F0CB
:1010100088234AF0EE0FFF1FBB1F661F771F881F34
:1010200091505040A9F79E3F510580F00C946A07FB
:101030000C94B5075F3FE4F3983ED4F3869577951B
:101040006795B795F795E7959F5FC1F7FE2B880FDA
:10105000911D9695879597F9089597FB072E16F49D
:10106000009407D077FD09D00E94500807FC05D0F6
:101070003EF4909581959F4F0895709561957F4FAF
:101080000895A29FB001B39FC001A39F700D811D61
:101090001124911DB29F700D811D1124911D089581
:1010A000AA1BBB1B51E107C0AA1FBB1FA617B7078E
:1010B00010F0A61BB70B881F991F5A95A9F78095AA
:0C10C0009095BC01CD010895F894FFCF7D
:0610CC0001000A0D000006
:00000001FF
