S01C00004D61676E657469635F446F6F725F4F70656E65722E7372656325
S11300000C9434000C943B050C9451000C94510056
S11300100C9451000C9451000C9451000C94530412
S11300200C9451000C9451000C9451000C946205F2
S11300300C9451000C9451000C9414050C94510030
S11300400C9451000C9451000C9451000C945100E8
S11300500C9451000C9451000C9451000C945100D8
S11300600C9451000C94510011241FBECFEFD8E022
S1130070DEBFCDBF11E0A0E0B1E0E2E4FFE002C0EA
S113008005900D92A630B107D9F721E0A6E0B1E0C2
S113009001C01D92AE33B207E1F70E948D050C94A6
S11300A09F070C940000ECE7F0E080818F77808359
S11300B0808180648083EAE7F0E0808183608083CC
S11300C080818B7F80838081806880830895811103
S11300D006C0ECE7F0E08081807F80830AC0813035
S11300E041F4ECE7F0E08081817F8083808181604E
S11300F08083EAE7F0E0808180648083808184FFEC
S1130100FDCF80917800909179000895BC0180E042
S113011090E00E94440620E030E040EA50E40E946F
S1130120FB0620E030E040E85AE30E94FB069B0116
S1130130AC010E94A4052DEC3CEC4CE45FE30E946E
S1130140F606082E000C990B809590958827990F38
S1130150881F992701960895CF93DF9300D000D08C
S1130160CDB7DEB784E08093110183E0809314015E
S11301701092100110920F011092180110921701A1
S1130180109216011092150110921301109212018F
S11301901C821B821A821982312C0F2EC12CD12C65
S11301A0E12CFFE3FF2EF02D0F2EFAE94F2EF9E993
S11301B05F2EF9E16F2EFFE37F2EF02D0F2EF3E378
S11301C08F2E982CA82CFFE3BF2EF02D01E010E019
S11301D06894222422F802C009831A8380911101B1
S11301E090E00E94350482E091E00E94970382E04F
S11301F091E00E94970380911101823009F440C17B
S113020020F4813009F475C0C7C1833009F4EBC010
S1130210843009F0C1C183E690E00E9435043110B6
S11302204DC0AAE1B1E0CD92DD92ED92FC9213971C
S1130230C0921E01D0921F01E0922001F092210190
S1130240C0922201D0922301E0922401F092250170
S1130250C0922601D0922701E0922801F092290150
S1130260C0922A01D0922B01E0922C01F0922D0130
S1130270C0922E01D0922F01E0923001F092310110
S1130280C0923201D0923301E0923401F0923501F0
S1130290C0923601D0923701E0923801F0923901D0
S11302A0C0923A01D0923B01E0923C01F0923D01B0
S11302B010920E010E94EF023324339480911001B6
S11302C0882309F48BCF1092100180E00E9467000C
S11302D00E94860080931401813021F483E080938E
S11302E011017CCF823009F079CFB1E0B0931101D4
S11302F075CF8091170190911801892B09F05AC08C
S11303000E94F702E1E0E0930E01AAE1B1E0CD9290
S1130310DD92ED92FC92139740921E0150921F01C0
S11303206092200170922101809222019092230117
S1130330A0922401B09225018DEC9CECACE4BFE3C7
S11303408093260190932701A0932801B09329015B
S113035086E696E6A6E6BFE380932A0190932B01F6
S1130360A0932C01B0932D01C0922E01D0922F01A5
S1130370E0923001F0923101C0923201D092330107
S1130380E0923401F0923501C0923601D0923701E7
S1130390E0923801F0923901C0923A01D0923B01C7
S11303A0E0923C01F0923D010E94EF02009317019C
S11303B01093180180911001882309F40FCF109233
S11303C0100180E00E9467000E948600809314015F
S11303D0813009F003CF83E080931101109216015C
S11303E010921501FBCE8091150190911601892B75
S11303F051F40E94F7020E941A030E9436030093EC
S113040015011093160180910F01882309F4E6CE9B
S113041010920F0181E00E946700A981BA81AB2B81
S113042079F081E00E946700302F212F813D9340B5
S113043010F030E020E03B832C831A821982CECE68
S113044081E00E946700202F312F813D934010F0FE
S113045020E030E04B815C81249FC001259F900DFA
S1130460349F900D1124019709F0B6CE82E0809359
S11304701101109213011092120109831A83AECE56
S11304808091120190911301892B09F06CC00E9494
S113049043030E9449030E94620310920E018DECF3
S11304A09CECACECBDE3EAE1F1E080839183A283B0
S11304B0B3838DEC9CECACE4BEE380931E0190937B
S11304C01F01A0932001B09321018AE999E9A9E9C8
S11304D0BEE38093220190932301A0932401B0935F
S11304E025018DEC9CECACECBEE38093260190934B
S11304F02701A0932801B0932901C0922A01D09228
S11305002B01E0922C01F0922D0140922E01509289
S11305102F016092300170923101809232019092E9
S11305203301A0923401B09235018DEC9CECACE423
S1130530BFE38093360190933701A0933801B093C1
S1130540390186E696E6A6E6BFE380933A019093E6
S11305503B01A0933C01B0933D010E94EF02009344
S113056012011093130180911001882309F436CEEF
S11305701092100180E00E9467000E948600809320
S11305801401823009F02ACE91E090931101109267
S113059018011092170122CE209211011FCEE0EB18
S11305A0F0E08081826080833081208181E090E06E
S11305B002C0880F991F3A95E2F78095909582239F
S11305C08083E1EBF0E0808188708083E0E7F0E0F5
S11305D080818260808381E08093B30008951092CB
S11305E0B200E1EBF0E08081876080830895E1EB65
S11305F0F0E08081887F8083089584B5826084BD23
S113060084B58E7F84BD85B5887085BDEEE6F0E047
S11306108081826080838AE087BD089516BC85B599
S1130620846085BD85B58C7F85BD089585B5887F3B
S113063085BD0895E0E8F0E0808183608083A1E8CF
S1130640B0E08C9188618C9385E090E09093890070
S113065080938800AFE6B0E08C918D7F8C9380818D
S11306608064808380818F778083089510928500D1
S113067010928400E1E8F0E08081836080838081CF
S11306808B7F80830895E1E8F0E08081887F808318
S11306900895E0E8F0E080818C7F8083E1E8F0E079
S11306A080818F7E80838081886080838AE197EB5C
S11306B09093890080938800EFE6F0E08081826067
S11306C080830895E1E8F0E0808185608083808103
S11306D0827080830895E1E8F0E08081887F8083E0
S11306E00895E89AE9E6F0E08081826080830895C5
S11306F08FEF8AB987B984B98BB988B985B9389825
S113070040985298399808959093C5008093C400F6
S113071088E18093C10086E08093C2000895E0ECF4
S1130720F0E0908195FFFDCF8093C6000895EF928D
S1130730FF920F931F93CF93DF938C017C01C0E052
S1130740D0E006C0F70181917F010E948F032196BA
S1130750F80101900020E9F73197E01BF10BCE1767
S1130760DF0780F3DF91CF911F910F91FF90EF90FE
S11307700895E0ECF0E0908195FFFDCF8093C600F2
S113078008958F929F92AF92BF92CF92DF92EF9291
S1130790FF92CF93DF934115510561057105A1F0D7
S11307A04A015B01C82FD92FC12CD12C7601899124
S11307B00E94B9038FEFC81AD80AE80AF80A8C1401
S11307C09D04AE04BF0499F7DF91CF91FF90EF90A1
S11307D0DF90CF90BF90AF909F908F900895CF926D
S11307E0DF92EF92FF92AC01892B31F4FB0110826E
S11307F0C12CD12C760132C0FB01C12CD12C760145
S11308009A01ADECBCEC0E947C0796958795969571
S11308108795969587959C01220F331F880F991F02
S1130820880F991F880F991F820F931F9A01281B05
S1130830390BC901805D81939A010E947C07AC0148
S11308405695479556954795569547953FEFC31A44
S1130850D30AE30AF30A4115510591F6C701B6011B
S1130860FF90EF90DF90CF900895CF93DF93CDB7B3
S1130870DEB72A970FB6F894DEBF0FBECDBFBE0118
S11308806F5F7F4F0E94EF03AB01BC01CE01019665
S11308900E94C1032A960FB6F894DEBF0FBECDBFE7
S11308A0DF91CF9108951F920F920FB60F921124EA
S11308B02F933F934F935F936F937F938F939F9364
S11308C0AF93BF93EF93FF93809100019091010147
S11308D0009789F58BB18F708BB9E0910A01F09183
S11308E00B01EE0FFF1FEE0FFF1FE65EFE4F208190
S11308F031814281538160E070E080E89FE30E948F
S1130900A30520E030E048E152E40E94FB060E9487
S113091015066093B30081E090E090930101809309
S1130920000180910C0190910D01019690930D01AD
S113093080930C0133C0019789F580910E018111D8
S113094004C08BB1806C8BB905C0813019F48BB1B4
S113095080638BB98091080190910901892B11F072
S11309600E940E03E0910A01F0910B01EE0FFF1FAC
S1130970EE0FFF1FE65EFE4F20E030E048E152E458
S113098060817181828193810E94FB060E94150619
S11309906093B300109201011092000180910C0148
S11309A090910D010A9779F510920D0110920C01A6
S11309B080910A0190910B01019669E070E00E9418
S11309C0680790930B0180930A01880F991F880F81
S11309D0991FFC01E65EFE4F20E030E040E05FE35B
S11309E060817181828193810E941006811107C008
S11309F081E090E0909309018093080104C0109273
S1130A00090110920801FF91EF91BF91AF919F915D
S1130A108F917F916F915F914F913F912F910F90A3
S1130A200FBE0F901F9018951F920F920FB60F9242
S1130A3011242F933F934F935F936F937F938F93DF
S1130A409F93AF93BF93EF93FF9381E08093100143
S1130A500E941603FF91EF91BF91AF919F918F91E7
S1130A607F916F915F914F913F912F910F900FBEA6
S1130A700F901F9018951F920F920FB60F9211248A
S1130A802F938F939F938091060190910701883E45
S1130A90934039F481E080930F0110920701109282
S1130AA00601809106019091070101969093070138
S1130AB0809306019F918F912F910F900FBE0F90FD
S1130AC01F9018951F920F920FB60F9211242F9317
S1130AD03F934F935F936F937F938F939F93AF93C2
S1130AE0BF93EF93FF9383E080931101109216015B
S1130AF0109215010E946B03FF91EF91BF91AF918A
S1130B009F918F917F916F915F914F913F912F9121
S1130B100F900FBE0F901F9018950E9453000E94D3
S1130B20CF020E94FD020E941A030E94780383E30D
S1130B3090E00E9484030E94710378940E94AC00A8
S1130B4080E090E008955058BB27AA270E94BB0577
S1130B500C94BC060E94AE0638F00E94B50620F044
S1130B6039F49F3F19F426F40C94AB060EF4E09587
S1130B70E7FB0C94A506E92F0E94CD0658F3BA179B
S1130B80620773078407950720F079F4A6F50C949F
S1130B90EF060EF4E0950B2EBA2FA02D0B01B90130
S1130BA090010C01CA01A0011124FF27591B99F0DF
S1130BB0593F50F4503E68F11A16F040A22F232FEB
S1130BC0342F4427585FF3CF469537952795A7953B
S1130BD0F0405395C9F77EF41F16BA0B620B730BE2
S1130BE0840BBAF09150A1F0FF0FBB1F661F771F53
S1130BF0881FC2F70EC0BA0F621F731F841F48F408
S1130C00879577956795B795F7959E3F08F0B0CF90
S1130C109395880F08F09927EE0F97958795089577
S1130C200E94810608F481E008950E94D50688F0A8
S1130C309F5798F0B92F9927B751B0F0E1F0660F9C
S1130C40771F881F991F1AF0BA95C9F714C0B130DD
S1130C5091F00E94EF06B1E008950C94EF06672F1F
S1130C60782F8827B85F39F0B93FCCF3869577950C
S1130C706795B395D9F73EF49095809570956195F5
S1130C807F4F8F4F9F4F0895E89409C097FB3EF420
S1130C9090958095709561957F4F8F4F9F4F9923C5
S1130CA0A9F0F92F96E9BB279395F6958795779543
S1130CB06795B795F111F8CFFAF4BB0F11F460FF03
S1130CC01BC06F5F7F4F8F4F9F4F16C0882311F05B
S1130CD096E911C0772321F09EE8872F762F05C06F
S1130CE0662371F096E8862F70E060E02AF09A950A
S1130CF0660F771F881FDAF7880F9695879597F9FF
S1130D000895990F0008550FAA0BE0E8FEEF161698
S1130D101706E807F907C0F012161306E407F507EB
S1130D2098F0621B730B840B950B39F40A2661F05F
S1130D30232B242B252B21F408950A2609F4A14002
S1130D40A6958FEF811D811D089597F99F6780E80F
S1130D5070E060E008959FEF80EC089500240A9409
S1130D601616170618060906089500240A94121682
S1130D701306140605060895092E0394000C11F4B5
S1130D80882352F0BB0F40F4BF2B11F460FF04C062
S1130D906F5F7F4F8F4F9F4F089557FD9058440FBB
S1130DA0551F59F05F3F71F04795880F97FB991FC6
S1130DB061F09F3F79F08795089512161306140683
S1130DC0551FF2CF4695F1DF08C016161706180610
S1130DD0991FF1CF86957105610508940895E894EB
S1130DE0BB2766277727CB0197F908950E948106D0
S1130DF008F48FEF08950E940E070C94BC060E941D
S1130E00AE0638F00E94B50620F0952311F00C943C
S1130E10A5060C94AB0611240C94F0060E94CD0692
S1130E2070F3959FC1F3950F50E0551F629FF00139
S1130E30729FBB27F00DB11D639FAA27F00DB11D52
S1130E40AA1F649F6627B00DA11D661F829F2227DB
S1130E50B00DA11D621F739FB00DA11D621F839F62
S1130E60A00D611D221F749F3327A00D611D231F38
S1130E70849F600D211D822F762F6A2F11249F5786
S1130E8050409AF0F1F088234AF0EE0FFF1FBB1F89
S1130E90661F771F881F91505040A9F79E3F510548
S1130EA080F00C94A5060C94F0065F3FE4F3983EA2
S1130EB0D4F3869577956795B795F795E7959F5FF2
S1130EC0C1F7FE2B880F911D9695879597F9089584
S1130ED097FB072E16F4009407D077FD09D00E94E3
S1130EE08B0707FC05D03EF4909581959F4F08959C
S1130EF0709561957F4F0895A29FB001B39FC00183
S1130F00A39F700D811D1124911DB29F700D811D31
S1130F101124911D0895AA1BBB1B51E107C0AA1FF0
S1130F20BB1FA617B70710F0A61BB70B881F991F86
S1130F305A95A9F780959095BC01CD010895F89430
S1050F40FFCFDD
S1090F4201000A0D00008D
S9030000FC
