:100000000C9434000C94EC040C9451000C945100AA
:100010000C9451000C9451000C9451000C94E90381
:100020000C9451000C9451000C9451000C94130545
:100030000C943B050C9451000C94C5040C94510095
:100040000C9451000C9451000C9451000C945100EC
:100050000C9451000C9451000C9451000C945100DC
:100060000C9451000C94510011241FBECFEFD8E026
:10007000DEBFCDBF11E0A0E0B1E0ECE3F0E102C0F3
:1000800005900D92A630B107D9F721E0A6E0B1E0C6
:1000900001C01D92A434B207E1F70E949C050C94A4
:1000A0001C080C940000ECE7F0E080818F778083DF
:1000B000808180648083EAE7F0E0808183608083D0
:1000C00080818B7F80838081806880830895811107
:1000D00006C0ECE7F0E08081807F808315C081302E
:1000E00049F4ECE7F0E08081817F8083808181604A
:1000F00080830AC0823041F4ECE7F0E080818260C6
:1001000080838081827F8083EAE7F0E08081806461
:100110008083808184FFFDCF809178009091790069
:100120000895CF93DF9300D000D0CDB7DEB784E041
:100130008093170183E080931A01109216011092A8
:10014000150110921E0110921D0110921C011092B7
:100150001B01109219011092180181E090E0909318
:100160001401809313011A8219821C821B82312C84
:100170000F2EC12CD12CE12CFFE3FF2EF02D0F2EE2
:10018000FAE98F2EF9E99F2EF9E1AF2EFFE3BF2E9A
:10019000F02D0F2EF3E34F2E542C642CFFE37F2E13
:1001A000F02D01E010E002C01C830B838091170149
:1001B000823009F4FDC018F4813041F181C18330EF
:1001C00009F4ACC0843009F07BC131100FC082E467
:1001D00090E00E94CB03EDE4F0E0A8E8B0E01196D7
:1001E000FC93EE930E94DE023324339480911A0133
:1001F000813029F483E0809317014398D7CF823070
:10020000A9F681E080931701439AD0CF80911D0118
:1002100090911E01892B09F068C00E946C0281E058
:1002200080931201A0E2B1E0CD92DD92ED92FC92BA
:1002300013978092240190922501A0922601B092FA
:100240002701409228015092290160922A01709260
:100250002B018DEC9CECACE4BFE380932C019093DC
:100260002D01A0932E01B0932F0186E696E6A6E617
:10027000BFE38093300190933101A0933201B0939A
:100280003301C0923401D0923501E0923601F092F0
:100290003701C0923801D0923901E0923A01F092D0
:1002A0003B01C0923C01D0923D01E0923E01F092B0
:1002B0003F01C0924001D0924101E0924201F09290
:1002C00043010E9487020E94A00210931401009330
:1002D00013018091130190911401892BD1F70E9491
:1002E000640210931E0100931D0180911601882362
:1002F00009F45CCF1092160181E00E9467000E9411
:10030000710580931A01813009F050CF83E080930A
:10031000170110921C0110921B0148CF80911B0104
:1003200090911C01892B41F40E94EB020E9403036F
:1003300010931C0100931B0180911501882309F47F
:1003400035CF1092150182E00E946700AB81BC811D
:10035000AB2B79F082E00E946700302F212F813D86
:10036000934010F030E020E039832A831C821B8206
:100370001DCF82E00E9467009801813D934010F0FC
:1003800020E030E049815A81249FC001259F900DD3
:10039000349F900D1124019709F006CF82E08093DD
:1003A000170110921901109218011C830B83FECEC5
:1003B0008091180190911901892B09F068C00E9461
:1003C0008102109212018DEC9CECACECBDE3E0E2FA
:1003D000F1E080839183A283B3838DEC9CECACE449
:1003E000BEE38093240190932501A0932601B0934E
:1003F00027018AE999E9A9E9BEE38093280190934E
:100400002901A0932A01B0932B018DEC9CECACEC5C
:10041000BEE380932C0190932D01A0932E01B09305
:100420002F01C0923001D0923101E0923201F0925E
:1004300033018092340190923501A0923601B0923E
:100440003701409238015092390160923A0170921E
:100450003B018DEC9CECACE4BFE380933C019093BA
:100460003D01A0933E01B0933F0186E696E6A6E6E5
:10047000BFE38093400190934101A0934201B09368
:1004800043010E94640210931901009318018091A6
:100490001601882309F48ACE1092160180E00E948A
:1004A00067000E94710580931A01823009F07ECEA8
:1004B00081E08093170110921E0110921D0176CEEB
:1004C00084E08093170172CE1092B200E1EBF0E06D
:1004D0008081876080830895E1EBF0E08081887FF0
:1004E00080838BB18F708BB9089516BC85B58460FD
:1004F00085BD85B58C7F85BD089585B5887F85BD13
:100500000895E1E8F0E08081887F80830895E0E845
:10051000F0E080818C7F8083E1E8F0E080818F7E55
:100520008083808188608083EFE6F0E08081826054
:10053000808380E197E290938900809388000895FA
:100540001092850010928400E1E8F0E080818560DF
:10055000808380818D7F80830895E1E8F0E0808151
:10056000887F80830895E1E8F0E08081886180835E
:10057000E0E8F0E080818260808380818E7F8083EC
:100580008BE990E090938700809386008DE490E063
:100590009093890080938800AFE6B0E08C918460EE
:1005A0008C938AE090E090938B0080938A00808106
:1005B0008068808380818F7B80830895109285007E
:1005C00010928400E1E8F0E0808184608083808183
:1005D0008C7F80830895E1E8F0E08081887F8083CC
:1005E000089585B5877F85BD84B5826084BD84B557
:1005F0008E7F84BD86E087BD84B5806484BD84B56C
:100600008F7784BD089516BC85B5836085BD85B59B
:100610008B7F85BD08958FEF8AB987B984B98BB96F
:1006200088B985B9389840984198389839983A9857
:10063000529808959093C5008093C40088E18093F8
:10064000C10086E08093C2000895E0ECF0E0908164
:1006500095FFFDCF8093C6000895EF92FF920F9310
:100660001F93CF93DF938C017C01C0E0D0E006C0E4
:10067000F70181917F010E9425032196F8010190E5
:100680000020E9F73197E01BF10BCE17DF0780F36D
:10069000DF91CF911F910F91FF90EF900895E0ECC3
:1006A000F0E0908195FFFDCF8093C60008958F9272
:1006B0009F92AF92BF92CF92DF92EF92FF92CF9331
:1006C000DF934115510561057105A1F04A015B01F8
:1006D000C82FD92FC12CD12C760189910E944F03AC
:1006E0008FEFC81AD80AE80AF80A8C149D04AE04E1
:1006F000BF0499F7DF91CF91FF90EF90DF90CF90FB
:10070000BF90AF909F908F900895CF92DF92EF921D
:10071000FF92AC01892B31F4FB011082C12CD12C4A
:10072000760132C0FB01C12CD12C76019A01ADECCF
:10073000BCEC0E94F90796958795969587959695B6
:1007400087959C01220F331F880F991F880F991FCF
:10075000880F991F820F931F9A01281B390BC9011B
:10076000805D81939A010E94F907AC0156954795E7
:1007700056954795569547953FEFC31AD30AE30A16
:10078000F30A4115510591F6C701B601FF90EF90AC
:10079000DF90CF900895CF93DF93CDB7DEB72A9740
:1007A0000FB6F894DEBF0FBECDBFBE016F5F7F4FA7
:1007B0000E948503AB01BC01CE0101960E94570344
:1007C0002A960FB6F894DEBF0FBECDBFDF91CF9152
:1007D00008951F920F920FB60F9211242F933F93FB
:1007E0004F935F936F937F938F939F93AF93BF9339
:1007F000EF93FF938091000190910101009789F59B
:100800008BB18F708BB9E0910E01F0910F01EE0F5B
:10081000FF1FEE0FFF1FE05EFE4F208131814281FE
:10082000538160E070E080E89FE30E94AE0520E025
:1008300030E048E152E40E9478070E9492066093FB
:10084000B30081E090E090930101809300018091DA
:100850001001909111010196909311018093100164
:100860003CC00197D1F58091120181110DC080919A
:100870000C0190910D01019690930D0180930C0154
:100880008BB1806C8BB905C0813019F48BB180635A
:100890008BB980910A0190910B01892B11F00E9474
:1008A0007502E0910E01F0910F01EE0FFF1FEE0FA8
:1008B000FF1FE05EFE4F20E030E048E152E460813F
:1008C0007181828193810E9478070E9492066093D1
:1008D000B3001092010110920001809110019091DB
:1008E00011010A9779F5109211011092100180916F
:1008F0000E0190910F01019669E070E00E94E507FA
:1009000090930F0180930E01880F991F880F991FF4
:10091000FC01E05EFE4F20E030E040E05FE36081FC
:100920007181828193810E941B06811107C081E041
:1009300090E090930B0180930A0104C010920B0188
:1009400010920A0180910C0190910D01843691055D
:1009500059F483E08093170110921C0110921B013F
:1009600010920D0110920C01FF91EF91BF91AF9188
:100970009F918F917F916F915F914F913F912F91B7
:100980000F900FBE0F901F9018951F920F920FB6E9
:100990000F9211242F933F934F935F936F937F9305
:1009A0008F939F93AF93BF93EF93FF9381E08093D7
:1009B00016010E947D02FF91EF91BF91AF919F912F
:1009C0008F917F916F915F914F913F912F910F90F8
:1009D0000FBE0F901F9018951F920F920FB60F9297
:1009E00011242F938F939F93809108019091090177
:1009F000883E934039F481E08093150110920901FB
:100A0000109208018091080190910901019690933C
:100A10000901809308019F918F912F910F900FBE34
:100A20000F901F9018951F920F920FB60F921124DE
:100A30002F933F934F935F936F937F938F939F93E6
:100A4000AF93BF93EF93FF93109214011092130191
:100A50000E94AD02FF91EF91BF91AF919F918F9155
:100A60007F916F915F914F913F912F910F900FBEAA
:100A70000F901F9018951F920F920FB60F9211248E
:100A80002F933F934F935F936F937F938F939F9396
:100A9000AF93BF93EF93FF9380E00E946700909322
:100AA00007018093060180910601909107010E9441
:100AB000CB0382E091E00E942D0382E080931A0133
:100AC000FF91EF91BF91AF919F918F917F916F9126
:100AD0005F914F913F912F910F900FBE0F901F90FC
:100AE0001895BC0180E090E00E94C10620E030E053
:100AF00040EA50E40E94780720E030E040E85AE302
:100B00000E94780726E636E646E450E40E94200676
:100B10009B01AC010E94AF052DEC3CEC4CE45FE383
:100B20000E947307882324F082E080931A010895BD
:100B300081E080931A0108950E9453000E94B3023D
:100B40000E94F1020E940B0383E390E00E941A03CB
:100B500078940E94910080E090E008955058BB275F
:100B6000AA270E94C6050C9439070E942B0738F06B
:100B70000E94320720F039F49F3F19F426F40C94B8
:100B800028070EF4E095E7FB0C942207E92F0E945A
:100B90004A0758F3BA17620773078407950720F0CE
:100BA00079F4A6F50C946C070EF4E0950B2EBA2F91
:100BB000A02D0B01B90190010C01CA01A001112463
:100BC000FF27591B99F0593F50F4503E68F11A160F
:100BD000F040A22F232F342F4427585FF3CF4695A0
:100BE00037952795A795F0405395C9F77EF41F16C2
:100BF000BA0B620B730B840BBAF09150A1F0FF0F8C
:100C0000BB1F661F771F881FC2F70EC0BA0F621F77
:100C1000731F841F48F4879577956795B795F79567
:100C20009E3F08F0B0CF9395880F08F09927EE0FFC
:100C30009795879508950E94FE0608F481E008952F
:100C40000E9434060C9439070E94320758F00E9423
:100C50002B0740F029F45F3F29F00C942207511133
:100C60000C946D070C9428070E944A0768F3992397
:100C7000B1F3552391F3951B550BBB27AA27621798
:100C80007307840738F09F5F5F4F220F331F441FA5
:100C9000AA1FA9F335D00E2E3AF0E0E832D09150D9
:100CA0005040E695001CCAF72BD0FE2F29D0660FC6
:100CB000771F881FBB1F261737074807AB07B0E809
:100CC00009F0BB0B802DBF01FF2793585F4F3AF00F
:100CD0009E3F510578F00C9422070C946D075F3FFE
:100CE000E4F3983ED4F3869577956795B795F79595
:100CF0009F5FC9F7880F911D9695879597F908957D
:100D0000E1E0660F771F881FBB1F62177307840718
:100D1000BA0720F0621B730B840BBA0BEE1F88F727
:100D2000E09508950E94520788F09F5798F0B92FD8
:100D30009927B751B0F0E1F0660F771F881F991F10
:100D40001AF0BA95C9F714C0B13091F00E946C073F
:100D5000B1E008950C946C07672F782F8827B85F4F
:100D600039F0B93FCCF3869577956795B395D9F768
:100D70003EF490958095709561957F4F8F4F9F4F72
:100D80000895E89409C097FB3EF49095809570957E
:100D900061957F4F8F4F9F4F9923A9F0F92F96E9C7
:100DA000BB279395F695879577956795B795F1113C
:100DB000F8CFFAF4BB0F11F460FF1BC06F5F7F4FD9
:100DC0008F4F9F4F16C0882311F096E911C07723EB
:100DD00021F09EE8872F762F05C0662371F096E8F4
:100DE000862F70E060E02AF09A95660F771F881FC3
:100DF000DAF7880F9695879597F90895990F000867
:100E0000550FAA0BE0E8FEEF16161706E807F907DC
:100E1000C0F012161306E407F50798F0621B730B77
:100E2000840B950B39F40A2661F0232B242B252BF8
:100E300021F408950A2609F4A140A6958FEF811D9B
:100E4000811D089597F99F6780E870E060E008953C
:100E50009FEF80EC089500240A94161617061806D2
:100E60000906089500240A941216130614060506AE
:100E70000895092E0394000C11F4882352F0BB0F3F
:100E800040F4BF2B11F460FF04C06F5F7F4F8F4FA2
:100E90009F4F089557FD9058440F551F59F05F3FDD
:100EA00071F04795880F97FB991F61F09F3F79F08C
:100EB00087950895121613061406551FF2CF46950E
:100EC000F1DF08C0161617061806991FF1CF869590
:100ED0007105610508940895E894BB276627772774
:100EE000CB0197F908950E94FE0608F48FEF08954C
:100EF0000E948B070C9439070E942B0738F00E9440
:100F0000320720F0952311F00C9422070C94280747
:100F100011240C946D070E944A0770F3959FC1F34A
:100F2000950F50E0551F629FF001729FBB27F00D97
:100F3000B11D639FAA27F00DB11DAA1F649F6627EC
:100F4000B00DA11D661F829F2227B00DA11D621F3B
:100F5000739FB00DA11D621F839FA00D611D221FF5
:100F6000749F3327A00D611D231F849F600D211DD9
:100F7000822F762F6A2F11249F5750409AF0F1F05C
:100F800088234AF0EE0FFF1FBB1F661F771F881FC5
:100F900091505040A9F79E3F510580F00C942207D4
:100FA0000C946D075F3FE4F3983ED4F386957795F4
:100FB0006795B795F795E7959F5FC1F7FE2B880F6B
:100FC000911D9695879597F9089597FB072E16F42E
:100FD000009407D077FD09D00E94080807FC05D0CF
:100FE0003EF4909581959F4F0895709561957F4F40
:100FF0000895A29FB001B39FC001A39F700D811DF2
:101000001124911DB29F700D811D1124911D089511
:10101000AA1BBB1B51E107C0AA1FBB1FA617B7071E
:1010200010F0A61BB70B881F991F5A95A9F780953A
:0C1030009095BC01CD010895F894FFCF0D
:06103C0001000A0D000096
:00000001FF
