:100000000C9434000C941C040C9451000C9451007A
:100010000C9451000C9451000C9451000C94340336
:100020000C9451000C9451000C9451000C9451000C
:100030000C9451000C9451000C94F5030C94510055
:100040000C9451000C9451000C9451000C945100EC
:100050000C9451000C9451000C9451000C945100DC
:100060000C9451000C94510011241FBECFEFD8E026
:10007000DEBFCDBF11E0A0E0B1E0E4EAFCE002C0E9
:1000800005900D92A230B107D9F721E0A2E0B1E0CE
:1000900001C01D92A433B207E1F70E9443040C94FF
:1000A00050060C940000ECE7F0E080818F778083AD
:1000B000808180648083EAE7F0E0808183608083D0
:1000C00080818B7F80838081806880830895ECE7C6
:1000D000F0E09081892B8083EAE7F0E08081806402
:1000E0008083808184FFFDCF80917800909179009A
:1000F0000895CF93BC0180E090E00E94FA0420E0D4
:1001000030E040EA50E40E94AC0520E030E040E8F6
:100110005AE30E94AC059B01AC010E945A04C1E065
:100120002DEC3CEC4CE45FE30E94C60418160CF482
:10013000C0E081E08C2790E0CF910895CF93DF93CA
:1001400000D0CDB7DEB784E080930D0182E08093CC
:100150000E0110920C0110920B011A821982812C4F
:10016000912CA12CB12C00E010E0312C212C0F2E71
:10017000C12CD12CE12CFFE3FF2EF02D0F2EFAE93C
:100180004F2EF9E95F2EF9E16F2EFFE37F2EF02D60
:1001900003C088248394922C80910D0190E00E94EA
:1001A000160380910D01823009F42EC120F48130B4
:1001B00009F46FC0F1CF833009F4E4C0843061F7F3
:1001C00031104DC0A0E1B1E0CD92DD92ED92FC92F4
:1001D0001397C0921401D0921501E0921601F0928B
:1001E0001701C0921801D0921901E0921A01F09201
:1001F0001B01C0921C01D0921D01E0921E01F092E1
:100200001F01C0922001D0922101E0922201F092C0
:100210002301C0922401D0922501E0922601F092A0
:100220002701C0922801D0922901E0922A01F09280
:100230002B01C0922C01D0922D01E0922E01F09260
:100240002F01C0923001D0923101E0923201F09240
:10025000330110920A010E942B02332433948091BF
:100260000C01882309F498CF10920C0180E00E94C1
:1002700067000E94790080930E01811104C0B3E0F1
:10028000B0930D0189CF813009F086CF80930D01A5
:1002900083CF0115110509F05BC00E94330281E094
:1002A00080930A01E0E1F1E0C082D182E282F38230
:1002B000409214015092150160921601709217013C
:1002C00083E393E3A3E3BFE38093180190931901C1
:1002D000A0931A01B0931B018DEC9CECACE4BFE33E
:1002E00080931C0190931D01A0931E01B0931F01E8
:1002F00086E696E6A6E6BFE380932001909321016F
:10030000A0932201B0932301C0922401D092250131
:10031000E0922601F0922701C0922801D092290193
:10032000E0922A01F0922B01C0922C01D0922D0173
:10033000E0922E01F0922F01C0923001D092310153
:10034000E0923201F09233010E942B0201E0122D63
:1003500080910C01882309F41FCF10920C0180E0DA
:100360000E9467000E94790080930E01811104C0F1
:1003700093E090930D0110CF813009F00DCF809361
:100380000D010ACFA114B10439F40E9433020E9476
:100390006A02AA24A394B22C80910B01882309F449
:1003A000FBCE10920B0181E00E946700892879F052
:1003B00081E00E94670031E0222D813D934010F0E2
:1003C00030E020E039832A83812C912CE5CE81E036
:1003D0000E94670021E0322D813D934010F020E023
:1003E00030E0E981FA812E9FC0012F9F900D3E9F42
:1003F000900D1124019709F0CCCEF2E0F0930D019D
:1004000088248394922CC8CE0E9477028AE992E0D5
:100410000E941603C1CEE0EBF0E080818260808311
:100420003081208181E090E002C0880F991F3A95C9
:10043000E2F78095909582238083E1EBF0E0808164
:1004400088708083E0E7F0E080818260808381E0D3
:100450008093B30008951092B200E1EBF0E0808148
:10046000876080830895E1EBF0E08081887F80835E
:10047000089584B5826084BD84B58E7F84BD85B5C2
:10048000887085BDEEE6F0E08081826080838AE03E
:1004900087BD089516BC85B5846085BD85B58C7F04
:1004A00085BD089585B5887F85BD0895E0E8F0E0B5
:1004B000808183608083A1E8B0E08C9188618C9317
:1004C00085E090E09093890080938800808180642B
:1004D000808308951092850010928400E1E8F0E096
:1004E00080818360808380818B7F80830895E1E8B1
:1004F000F0E08081887F80830895E89AE9E6F0E063
:1005000080818260808308958FEF8AB987B984B92A
:100510008BB988B985B9389840982B9808959093ED
:10052000C5008093C40088E18093C10086E0809379
:10053000C2000895E0ECF0E0908195FFFDCF80933C
:10054000C60008958F929F92AF92BF92CF92DF9292
:10055000EF92FF92CF93DF9341155105610571052D
:10056000A1F04A015B01C82FD92FC12CD12C7601F3
:1005700089910E949A028FEFC81AD80AE80AF80AED
:100580008C149D04AE04BF0499F7DF91CF91FF90C6
:10059000EF90DF90CF90BF90AF909F908F90089595
:1005A000CF92DF92EF92FF92AC01892B31F4FB01E5
:1005B0001082C12CD12C760132C0FB01C12CD12C70
:1005C00076019A01ADECBCEC0E942D0696958795BC
:1005D00096958795969587959C01220F331F880FD6
:1005E000991F880F991F880F991F820F931F9A01D7
:1005F000281B390BC901805D81939A010E942D0649
:10060000AC015695479556954795569547953FEFBA
:10061000C31AD30AE30AF30A4115510591F6C7013B
:10062000B601FF90EF90DF90CF900895CF93DF93C6
:10063000CDB7DEB72A970FB6F894DEBF0FBECDBF99
:10064000BE016F5F7F4F0E94D002AB01BC01CE01A3
:1006500001960E94A2022A960FB6F894DEBF0FBE42
:10066000CDBFDF91CF9108951F920F920FB60F92D9
:1006700011242F933F934F935F936F937F938F93A7
:100680009F93AF93BF93EF93FF938091000190915D
:100690000101009789F58BB1837C8BB9E09106014C
:1006A000F0910701EE0FFF1FEE0FFF1FE05FFE4FFF
:1006B000208131814281538160E070E080E89FE3D6
:1006C0000E94590420E030E048E152E40E94AC0569
:1006D0000E94CB046093B30081E090E0909301010D
:1006E00080930001809108019091090101969093F7
:1006F00009018093080133C0019789F580910A01AF
:10070000811104C08BB18C608BB905C0813019F4A4
:100710008BB180638BB98091040190910501892B85
:1007200011F00E944A02E0910601F0910701EE0FDC
:10073000FF1FEE0FFF1FE05FFE4F20E030E048E1BB
:1007400052E460817181828193810E94AC050E9494
:10075000CB046093B30010920101109200018091CC
:100760000801909109010A9779F5109209011092F8
:1007700008018091060190910701019669E070E0FF
:100780000E9419069093070180930601880F991F14
:10079000880F991FFC01E05FFE4F20E030E040E051
:1007A0005FE360817181828193810E94C60481111F
:1007B00007C081E090E0909305018093040104C09C
:1007C0001092050110920401FF91EF91BF91AF913A
:1007D0009F918F917F916F915F914F913F912F9159
:1007E0000F900FBE0F901F9018951F920F920FB68B
:1007F0000F9211242F933F934F935F936F937F93A7
:100800008F939F93AF93BF93EF93FF9381E0809378
:100810000C010E945202FF91EF91BF91AF919F9105
:100820008F917F916F915F914F913F912F910F9099
:100830000FBE0F901F9018951F920F920FB60F9238
:1008400011242F938F939F93809102019091030124
:10085000883E934039F481E080930B0110920301AC
:1008600010920201809102019091030101969093F0
:100870000301809302019F918F912F910F900FBEE2
:100880000F901F9018950E9453000E940B020E9427
:1008900039020E9456020E94840283E390E00E9483
:1008A0008F020E947D0278940E949E0080E090E07A
:1008B00008955058BB27AA270E9471040C94720512
:1008C0000E94640538F00E946B0520F039F49F3FC8
:1008D00019F426F40C9461050EF4E095E7FB0C94F2
:1008E0005B05E92F0E94830558F3BA176207730767
:1008F0008407950720F079F4A6F50C94A5050EF46D
:10090000E0950B2EBA2FA02D0B01B90190010C011F
:10091000CA01A0011124FF27591B99F0593F50F437
:10092000503E68F11A16F040A22F232F342F44278F
:10093000585FF3CF469537952795A795F040539587
:10094000C9F77EF41F16BA0B620B730B840BBAF057
:100950009150A1F0FF0FBB1F661F771F881FC2F7C2
:100960000EC0BA0F621F731F841F48F487957795D6
:100970006795B795F7959E3F08F0B0CF9395880F90
:1009800008F09927EE0F9795879508950E943705EF
:1009900008F481E008950E948B0588F09F5798F035
:1009A000B92F9927B751B0F0E1F0660F771F881F74
:1009B000991F1AF0BA95C9F714C0B13091F00E948E
:1009C000A505B1E008950C94A505672F782F882719
:1009D000B85F39F0B93FCCF3869577956795B395B5
:1009E000D9F73EF490958095709561957F4F8F4F24
:1009F0009F4F0895E89409C097FB3EF49095809529
:100A0000709561957F4F8F4F9F4F9923A9F0F92FD4
:100A100096E9BB279395F695879577956795B79552
:100A2000F111F8CFFAF4BB0F11F460FF1BC06F5F38
:100A30007F4F8F4F9F4F16C0882311F096E911C04A
:100A4000772321F09EE8872F762F05C0662371F06B
:100A500096E8862F70E060E02AF09A95660F771F7F
:100A6000881FDAF7880F9695879597F90895990F5B
:100A70000008550FAA0BE0E8FEEF16161706E80768
:100A8000F907C0F012161306E407F50798F0621B89
:100A9000730B840B950B39F40A2661F0232B242B5E
:100AA000252B21F408950A2609F4A140A6958FEF7D
:100AB000811D811D089597F99F6780E870E060E0CF
:100AC00008959FEF80EC089500240A9416161706E7
:100AD00018060906089500240A941216130614062F
:100AE00005060895092E0394000C11F4882352F092
:100AF000BB0F40F4BF2B11F460FF04C06F5F7F4F4A
:100B00008F4F9F4F089557FD9058440F551F59F030
:100B10005F3F71F04795880F97FB991F61F09F3FEA
:100B200079F087950895121613061406551FF2CF13
:100B30004695F1DF08C0161617061806991FF1CF63
:100B400086957105610508940895E894BB2766278A
:100B50007727CB0197F908950E94BF050C94720581
:100B60000E94640538F00E946B0520F0952311F077
:100B70000C945B050C94610511240C94A6050E944D
:100B8000830570F3959FC1F3950F50E0551F629F49
:100B9000F001729FBB27F00DB11D639FAA27F00DD6
:100BA000B11DAA1F649F6627B00DA11D661F829FFD
:100BB0002227B00DA11D621F739FB00DA11D621FE2
:100BC000839FA00D611D221F749F3327A00D611DFF
:100BD000231F849F600D211D822F762F6A2F1124E1
:100BE0009F5750409AF0F1F088234AF0EE0FFF1F14
:100BF000BB1F661F771F881F91505040A9F79E3F6B
:100C0000510580F00C945B050C94A6055F3FE4F35E
:100C1000983ED4F3869577956795B795F795E795C0
:100C20009F5FC1F7FE2B880F911D9695879597F9C9
:100C3000089597FB072E16F4009407D077FD09D08E
:100C40000E943C0607FC05D03EF4909581959F4F8D
:100C50000895709561957F4F0895A29FB001B39F4D
:100C6000C001A39F700D811D1124911DB29F700DB5
:100C7000811D1124911D0895AA1BBB1B51E107C0C2
:100C8000AA1FBB1FA617B70710F0A61BB70B881F1C
:100C9000991F5A95A9F780959095BC01CD010895AB
:040CA000F894FFCFF6
:020CA40001004D
:00000001FF
