:100000000C9434000C9451000C9451000C94510049
:100010000C9451000C9451000C9451000C9451001C
:100020000C9451000C9451000C9451000C942B0131
:100030000C9451000C9451000C94B6010C94510096
:100040000C9451000C9451000C9451000C945100EC
:100050000C9451000C9451000C9451000C945100DC
:100060000C9451000C94510011241FBECFEFD8E026
:10007000DEBFCDBF11E0A0E0B1E0E2EBF7E002C0EF
:1000800005900D92A230B107D9F721E0A2E0B1E0CE
:1000900001C01D92AD30B207E1F70E94DD010C9462
:1000A000D7030C940000ECE7F0E080818F77808329
:1000B000808180648083EAE7F0E0808183608083D0
:1000C00080818B7F80838081806880830895ECE7C6
:1000D000F0E09081892B8083EAE7F0E08081806402
:1000E0008083808184FFFDCF80917800909179009A
:1000F0000895CF93BC01660F771F660F771F860F99
:10010000971FBC01672F77276695669580E090E082
:100110000E9490029B01AC010E94F001C1E02DEC15
:100120003CEC4CE45FE30E945C0218160CF4C0E067
:1001300081E08C2790E0CF91089583E080930701C0
:1001400082E08093080110920601C0E00F2EC12CBE
:10015000D12CE12CFFE3FF2EF02D11E0D2E08091B5
:1001600007018330F1F7C1110BC0C0920901D09291
:100170000A01E0920B01F0920C010E94E800C12FED
:1001800080910601882359F31092060180E00E94B5
:1001900067000E94790080930801811103C0D09309
:1001A0000701DDCF8130D9F60E94F500FFCFE1E8ED
:1001B000F0E0808188608083EFE6F0E080818260FB
:1001C000808381E090E09093890080938800089577
:1001D0001092850010928400E1E8F0E08081856053
:1001E000808380818D7F80830895E1E8F0E08081C5
:1001F000887F8083089584B5826084BD84B58E7FB6
:1002000084BD85B5887085BDEEE6F0E080818260B2
:1002100080838AE087BD089516BC85B5846085BD5E
:1002200085B58C7F85BD089585B5887F85BD08958A
:100230008FEF8AB987B984B98BB988B985B9089520
:100240009093C5008093C40088E18093C10086E04C
:100250008093C20008951F920F920FB60F9211243F
:100260002F933F934F935F936F937F938F939F93BE
:10027000AF93BF93EF93FF938091000190910101A1
:10028000009769F58BB1837C8BB92091090130917E
:100290000A0140910B0150910C0160E070E080E890
:1002A0009FE30E94EF0120E030E048E152E40E9429
:1002B00042030E946102709389006093880081E08C
:1002C00090E090930101809300018091040190914E
:1002D0000501019690930501809304011FC00197C9
:1002E000E9F48BB18C638BB90E940C0120E030E003
:1002F00048E152E46091090170910A0180910B017B
:1003000090910C010E9442030E9461027093890047
:100310006093880010920101109200018091040105
:10032000909105010A9789F4109205011092040139
:100330008091020190910301019669E070E00E94B2
:10034000AF039093030180930201FF91EF91BF915E
:10035000AF919F918F917F916F915F914F913F915D
:100360002F910F900FBE0F901F9018951F920F9214
:100370000FB60F9211242F933F934F935F936F9378
:100380007F938F939F93AF93BF93EF93FF9381E0FE
:10039000809306010E941401FF91EF91BF91AF91EC
:1003A0009F918F917F916F915F914F913F912F918D
:1003B0000F900FBE0F901F9018950E9453000E943F
:1003C000D7000E94FB000E94180183E390E00E9486
:1003D000200178940E949D0080E090E0089550589C
:1003E000BB27AA270E9407020C9408030E94FA0266
:1003F00038F00E94010320F039F49F3F19F426F4ED
:100400000C94F7020EF4E095E7FB0C94F102E92F4F
:100410000E94190358F3BA176207730784079507F8
:1004200020F079F4A6F50C943B030EF4E0950B2E26
:10043000BA2FA02D0B01B90190010C01CA01A00136
:100440001124FF27591B99F0593F50F4503E68F191
:100450001A16F040A22F232F342F4427585FF3CFD2
:10046000469537952795A795F0405395C9F77EF4A3
:100470001F16BA0B620B730B840BBAF09150A1F0EC
:10048000FF0FBB1F661F771F881FC2F70EC0BA0F72
:10049000621F731F841F48F4879577956795B795FA
:1004A000F7959E3F08F0B0CF9395880F08F09927F5
:1004B000EE0F9795879508950E94CD0208F481E08C
:1004C00008950E94210388F09F5798F0B92F99272B
:1004D000B751B0F0E1F0660F771F881F991F1AF02F
:1004E000BA95C9F714C0B13091F00E943B03B1E056
:1004F00008950C943B03672F782F8827B85F39F055
:10050000B93FCCF3869577956795B395D9F73EF4C7
:1005100090958095709561957F4F8F4F9F4F08956F
:10052000E89409C097FB3EF490958095709561958D
:100530007F4F8F4F9F4F9923A9F0F92F96E9BB2743
:100540009395F695879577956795B795F111F8CFBF
:10055000FAF4BB0F11F460FF1BC06F5F7F4F8F4F2A
:100560009F4F16C0882311F096E911C0772321F020
:100570009EE8872F762F05C0662371F096E8862FB8
:1005800070E060E02AF09A95660F771F881FDAF70F
:10059000880F9695879597F90895990F0008550F3C
:1005A000AA0BE0E8FEEF16161706E807F907C0F0F9
:1005B00012161306E407F50798F0621B730B840B01
:1005C000950B39F40A2661F0232B242B252B21F4DB
:1005D00008950A2609F4A140A6958FEF811D811D7B
:1005E000089597F99F6780E870E060E008959FEFB5
:1005F00080EC089500240A941616170618060906BA
:10060000089500240A941216130614060506089588
:10061000092E0394000C11F4882352F0BB0F40F410
:10062000BF2B11F460FF04C06F5F7F4F8F4F9F4F50
:10063000089557FD9058440F551F59F05F3F71F0D2
:100640004795880F97FB991F61F09F3F79F0879539
:100650000895121613061406551FF2CF4695F1DFC2
:1006600008C0161617061806991FF1CF8695710552
:10067000610508940895E894BB2766277727CB0186
:1006800097F908950E9455030C9408030E94FA02FA
:1006900038F00E94010320F0952311F00C94F10230
:1006A0000C94F70211240C943C030E94190370F37C
:1006B000959FC1F3950F50E0551F629FF001729F07
:1006C000BB27F00DB11D639FAA27F00DB11DAA1F16
:1006D000649F6627B00DA11D661F829F2227B00D63
:1006E000A11D621F739FB00DA11D621F839FA00DEE
:1006F000611D221F749F3327A00D611D231F849F3E
:10070000600D211D822F762F6A2F11249F57504094
:100710009AF0F1F088234AF0EE0FFF1FBB1F661F0F
:10072000771F881F91505040A9F79E3F510580F0D8
:100730000C94F1020C943C035F3FE4F3983ED4F335
:10074000869577956795B795F795E7959F5FC1F77C
:10075000FE2B880F911D9695879597F9089597FB25
:10076000072E16F4009407D077FD09D00E94C3032A
:1007700007FC05D03EF4909581959F4F08957095A4
:1007800061957F4F0895AA1BBB1B51E107C0AA1FAB
:10079000BB1FA617B70710F0A61BB70B881F991F22
:1007A0005A95A9F780959095BC01CD010895F894CC
:0207B000FFCF79
:0207B200010044
:00000001FF
