:100000000C9434000C9493040C9451000C94510003
:100010000C9451000C9451000C9451000C94A303C7
:100020000C9451000C9451000C9451000C9451000C
:100030000C9451000C9451000C946C040C945100DD
:100040000C9451000C9451000C9451000C945100EC
:100050000C9451000C9451000C9451000C945100DC
:100060000C9451000C94510011241FBECFEFD8E026
:10007000DEBFCDBF11E0A0E0B1E0E2E9FDE002C0EB
:1000800005900D92A230B107D9F721E0A2E0B1E0CE
:1000900001C01D92A433B207E1F70E94BA040C9488
:1000A000C7060C940000ECE7F0E080818F77808336
:1000B000808180648083EAE7F0E0808183608083D0
:1000C00080818B7F80838081806880830895ECE7C6
:1000D000F0E09081892B8083EAE7F0E08081806402
:1000E0008083808184FFFDCF80917800909179009A
:1000F0000895CF93BC0180E090E00E94710520E05C
:1001000030E040EA50E40E94230620E030E040E87E
:100110005AE30E9423069B01AC010E94D104C1E076
:100120002DEC3CEC4CE45FE30E943D0518160CF40A
:10013000C0E081E08C2790E0CF910895CF93DF93CA
:10014000CDB7DEB727970FB6F894DEBF0FBECDBF91
:1001500084E080930D0182E080930E0110920C01E7
:1001600010920B011F821E821D821C8200E010E093
:10017000212C312C1A8219821B820F2EC12CD12CDA
:10018000E12CFFE3FF2EF02D0F2EFAE94F2EF9E9B7
:100190005F2EF9E16F2EFFE37F2EF02D0F2EF3E39C
:1001A0008F2E982CA82CFFE3BF2EF02D03C041E02A
:1001B0004C831D8280910D01823009F42EC120F400
:1001C000813009F470C0F8CF833009F4E4C0843082
:1001D00099F75B8151114DC0A0E1B1E0CD92DD9264
:1001E000ED92FC921397C0921401D0921501E09207
:1001F0001601F0921701C0921801D0921901E092F5
:100200001A01F0921B01C0921C01D0921D01E092D4
:100210001E01F0921F01C0922001D0922101E092B4
:100220002201F0922301C0922401D0922501E09294
:100230002601F0922701C0922801D0922901E09274
:100240002A01F0922B01C0922C01D0922D01E09254
:100250002E01F0922F01C0923001D0923101E09234
:100260003201F092330110920A010E949A02B1E029
:10027000BB8380910C01882309F49CCF10920C0160
:1002800080E00E9467000E94790080930E01811136
:1002900004C083E080930D018DCF813009F08ACFB7
:1002A00080930D0187CFE981FA81EF2B09F059C0C6
:1002B0000E94A20281E080930A01A0E1B1E0CD9208
:1002C000DD92ED92FC921397409214015092150129
:1002D0006092160170921701809218019092190194
:1002E000A0921A01B0921B018DEC9CECACE4BFE330
:1002F00080931C0190931D01A0931E01B0931F01D8
:1003000086E696E6A6E6BFE380932001909321015E
:10031000A0932201B0932301C0922401D092250121
:10032000E0922601F0922701C0922801D092290183
:10033000E0922A01F0922B01C0922C01D0922D0163
:10034000E0922E01F0922F01C0923001D092310143
:10035000E0923201F09233010E949A0291E0998377
:100360001A8280910C01882309F424CF10920C0189
:1003700080E00E9467000E94790080930E01811145
:1003800004C083E080930D0115CF813009F012CFB6
:1003900080930D010FCF2114310439F40E94A20281
:1003A0000E94D90222242394312C80910B018823AE
:1003B00009F400CF10920B0181E00E946700AC812C
:1003C000BD81AB2B71F081E00E94670031E020E03D
:1003D000813D934008F030E03E832F831C821D82D4
:1003E000E9CE81E00E94670021E030E0813D93404A
:1003F00008F020E04E815F81249FC001259F900D71
:10040000349F900D1124019709F0D1CE52E0509302
:100410000D0181E08C831D82CDCE0115110509F0FF
:10042000C9CE0E947A020E94E60210920A018DEC67
:100430009CECACECBDE3E0E1F1E080839183A2832E
:10044000B3838DEC9CECACE4BEE3809314019093F9
:100450001501A0931601B09317018AE999E9A9E95A
:10046000BEE38093180190931901A0931A01B093F1
:100470001B018DEC9CECACECBEE380931C019093D3
:100480001D01A0931E01B0931F01C0922001D092C4
:100490002101E0922201F092230140922401509226
:1004A0002501609226017092270180922801909286
:1004B0002901A0922A01B0922B018DEC9CECACE4B6
:1004C000BFE380932C0190932D01A0932E01B09354
:1004D0002F0186E696E6A6E6BFE38093300190936F
:1004E0003101A0933201B09333010E949A0201E0DE
:1004F00010E060CEE0EBF0E08081826080833081AC
:10050000208181E090E002C0880F991F3A95E2F7C0
:100510008095909582238083E1EBF0E08081887064
:100520008083E0E7F0E080818260808381E08093D7
:10053000B30008951092B200E1EBF0E08081876093
:1005400080830895E1EBF0E08081887F80830895C7
:1005500084B5826084BD84B58E7F84BD85B5887086
:1005600085BDEEE6F0E08081826080838AE087BD11
:10057000089516BC85B5846085BD85B58C7F85BD25
:10058000089585B5887F85BD0895E0E8F0E0808115
:1005900083608083A1E8B0E08C9188618C9385E0D2
:1005A00090E09093890080938800808180648083AC
:1005B00008951092850010928400E1E8F0E08081B7
:1005C0008360808380818B7F80830895E1E8F0E001
:1005D0008081887F80830895E89AE9E6F0E0808151
:1005E0008260808308958FEF8AB987B984B98BB907
:1005F00088B985B938984098529808959093C50065
:100600008093C40088E18093C10086E08093C2009B
:100610000895E0ECF0E0908195FFFDCF8093C60057
:1006200008958F929F92AF92BF92CF92DF92EF92F6
:10063000FF92CF93DF934115510561057105A1F03C
:100640004A015B01C82FD92FC12CD12C7601899189
:100650000E9409038FEFC81AD80AE80AF80A8C1416
:100660009D04AE04BF0499F7DF91CF91FF90EF9006
:10067000DF90CF90BF90AF909F908F900895CF92D2
:10068000DF92EF92FF92AC01892B31F4FB011082D3
:10069000C12CD12C760132C0FB01C12CD12C7601AA
:1006A0009A01ADECBCEC0E94A406969587959695B0
:1006B0008795969587959C01220F331F880F991F68
:1006C000880F991F880F991F820F931F9A01281B6B
:1006D000390BC901805D81939A010E94A406AC0187
:1006E0005695479556954795569547953FEFC31AAA
:1006F000D30AE30AF30A4115510591F6C701B60181
:10070000FF90EF90DF90CF900895CF93DF93CDB718
:10071000DEB72A970FB6F894DEBF0FBECDBFBE017D
:100720006F5F7F4F0E943F03AB01BC01CE0101967A
:100730000E9411032A960FB6F894DEBF0FBECDBFFC
:10074000DF91CF9108951F920F920FB60F9211244F
:100750002F933F934F935F936F937F938F939F93C9
:10076000AF93BF93EF93FF938091000190910101AC
:10077000009789F58BB18F708BB9E0910601F091EC
:100780000701EE0FFF1FEE0FFF1FE05FFE4F2081FE
:1007900031814281538160E070E080E89FE30E94F4
:1007A000D00420E030E048E152E40E9423060E9499
:1007B00042056093B30081E090E090930101809343
:1007C000000180910801909109010196909309011F
:1007D000809308013BC00197C9F580910A018111FE
:1007E00008C083E690E00E9485038BB1806C8BB9D2
:1007F00009C0813039F488E590E00E9485038BB10F
:1008000080638BB98091040190910501892B11F0CF
:100810000E94B902E0910601F0910701EE0FFF1F5F
:10082000EE0FFF1FE05FFE4F20E030E048E152E4B2
:1008300060817181828193810E9423060E9442051A
:100840006093B300109201011092000180910801A1
:10085000909109010A9779F5109209011092080107
:100860008091060190910701019669E070E00E9475
:1008700090069093070180930601880F991F880FB7
:10088000991FFC01E05FFE4F20E030E040E05FE3B5
:1008900060817181828193810E943D05811107C031
:1008A00081E090E0909305018093040104C01092D0
:1008B000050110920401FF91EF91BF91AF919F91BB
:1008C0008F917F916F915F914F913F912F910F90F9
:1008D0000FBE0F901F9018951F920F920FB60F9298
:1008E00011242F933F934F935F936F937F938F9335
:1008F0009F93AF93BF93EF93FF9381E080930C019D
:100900000E94C102FF91EF91BF91AF919F918F9192
:100910007F916F915F914F913F912F910F900FBEFB
:100920000F901F9018951F920F920FB60F921124DF
:100930002F938F939F938091020190910301883EA2
:10094000934039F481E080930B01109203011092DF
:10095000020180910201909103010196909303019D
:10096000809302019F918F912F910F900FBE0F9056
:100970001F9018950E9453000E947A020E94A802BC
:100980000E94C5020E94F30283E390E00E94FE02EF
:100990000E94EC0278940E949E0080E090E008950E
:1009A0005058BB27AA270E94E8040C94E9050E942E
:1009B000DB0538F00E94E20520F039F49F3F19F47E
:1009C00026F40C94D8050EF4E095E7FB0C94D205C0
:1009D000E92F0E94FA0558F3BA17620773078407D4
:1009E000950720F079F4A6F50C941C060EF4E0951A
:1009F0000B2EBA2FA02D0B01B90190010C01CA01D9
:100A0000A0011124FF27591B99F0593F50F4503E83
:100A100068F11A16F040A22F232F342F4427585F75
:100A2000F3CF469537952795A795F0405395C9F78D
:100A30007EF41F16BA0B620B730B840BBAF0915045
:100A4000A1F0FF0FBB1F661F771F881FC2F70EC0E4
:100A5000BA0F621F731F841F48F4879577956795B7
:100A6000B795F7959E3F08F0B0CF9395880F08F0A3
:100A70009927EE0F9795879508950E94AE0508F483
:100A800081E008950E94020688F09F5798F0B92FE0
:100A90009927B751B0F0E1F0660F771F881F991FB3
:100AA0001AF0BA95C9F714C0B13091F00E941C0633
:100AB000B1E008950C941C06672F782F8827B85F43
:100AC00039F0B93FCCF3869577956795B395D9F70B
:100AD0003EF490958095709561957F4F8F4F9F4F15
:100AE0000895E89409C097FB3EF490958095709521
:100AF00061957F4F8F4F9F4F9923A9F0F92F96E96A
:100B0000BB279395F695879577956795B795F111DE
:100B1000F8CFFAF4BB0F11F460FF1BC06F5F7F4F7B
:100B20008F4F9F4F16C0882311F096E911C077238D
:100B300021F09EE8872F762F05C0662371F096E896
:100B4000862F70E060E02AF09A95660F771F881F65
:100B5000DAF7880F9695879597F90895990F000809
:100B6000550FAA0BE0E8FEEF16161706E807F9077F
:100B7000C0F012161306E407F50798F0621B730B1A
:100B8000840B950B39F40A2661F0232B242B252B9B
:100B900021F408950A2609F4A140A6958FEF811D3E
:100BA000811D089597F99F6780E870E060E00895DF
:100BB0009FEF80EC089500240A9416161706180675
:100BC0000906089500240A94121613061406050651
:100BD0000895092E0394000C11F4882352F0BB0FE2
:100BE00040F4BF2B11F460FF04C06F5F7F4F8F4F45
:100BF0009F4F089557FD9058440F551F59F05F3F80
:100C000071F04795880F97FB991F61F09F3F79F02E
:100C100087950895121613061406551FF2CF4695B0
:100C2000F1DF08C0161617061806991FF1CF869532
:100C30007105610508940895E894BB276627772716
:100C4000CB0197F908950E9436060C94E9050E949D
:100C5000DB0538F00E94E20520F0952311F00C949A
:100C6000D2050C94D80511240C941D060E94FA0597
:100C700070F3959FC1F3950F50E0551F629FF001EF
:100C8000729FBB27F00DB11D639FAA27F00DB11D08
:100C9000AA1F649F6627B00DA11D661F829F222791
:100CA000B00DA11D621F739FB00DA11D621F839F18
:100CB000A00D611D221F749F3327A00D611D231FEE
:100CC000849F600D211D822F762F6A2F11249F573C
:100CD00050409AF0F1F088234AF0EE0FFF1FBB1F3F
:100CE000661F771F881F91505040A9F79E3F5105FE
:100CF00080F00C94D2050C941D065F3FE4F3983EFF
:100D0000D4F3869577956795B795F795E7959F5FA7
:100D1000C1F7FE2B880F911D9695879597F9089539
:100D200097FB072E16F4009407D077FD09D00E9498
:100D3000B30607FC05D03EF4909581959F4F08952A
:100D4000709561957F4F0895A29FB001B39FC00138
:100D5000A39F700D811D1124911DB29F700D811DE7
:100D60001124911D0895AA1BBB1B51E107C0AA1FA6
:100D7000BB1FA617B70710F0A61BB70B881F991F3C
:100D80005A95A9F780959095BC01CD010895F894E6
:020D9000FFCF93
:020D920001005E
:00000001FF
