S01C00004D61676E657469635F446F6F725F4F70656E65722E7372656325
S11300000C9434000C9451000C9451000C94510045
S11300100C9451000C9451000C9451000C94510018
S11300200C9451000C9451000C9451000C94370220
S11300300C9451000C9451000C94DD020C9451006A
S11300400C9451000C9451000C9451000C945100E8
S11300500C9451000C9451000C9451000C945100D8
S11300600C9451000C94510011241FBECFEFD8E022
S1130070DEBFCDBF11E0A0E0B1E0EEE1FAE002C0E6
S113008005900D92A230B107D9F721E0A2E0B1E0CA
S113009001C01D92AF32B207E1F70E9404030C9431
S11300A00D050C940000ECE7F0E080818F778083ED
S11300B0808180648083EAE7F0E0808183608083CC
S11300C080818B7F80838081806880830895ECE7C2
S11300D0F0E09081892B8083EAE7F0E080818064FE
S11300E08083808184FFFDCF809178009091790096
S11300F00895CF93BC01660F771F660F771F860F95
S1130100971FBC01672F77276695669580E090E07E
S11301100E94B7039B01AC010E941703C1E02DECC0
S11301203CEC4CE45FE30E94830318160CF4C0E03B
S113013081E08C2790E0CF91089583E080930801BB
S113014082E0809309011092070100E010E0312C55
S113015022242394CBE0D1E00F2EC12CD12CE12C0E
S1130160FFE3FF2EF02D0F2EFAE98F2EF9E99F2ED3
S1130170F9E1AF2EFFE3BF2EF02D0F2EF3E34F2E48
S1130180542C642CFFE37F2EF02D809108018823EA
S113019009F446C08330D9F7311029C0C882D98206
S11301A0EA82FB82CC82DD82EE82FF82C886D98617
S11301B0EA86FB86CC86DD86EE86FF86C88AD98AE7
S11301C0EA8AFB8ACC8ADD8AEE8AFF8AC88ED98EB7
S11301D0EA8EFB8ECC8EDD8EEE8EFF8EC8A2D9A267
S11301E0EAA2FBA2109206010E945A01322C8091CD
S11301F00701882351F21092070180E00E946700F2
S11302000E94790080930901811104C082E08093E7
S11302100801BBCF813009F0B8CF10920801B5CFE7
S11302200115110509F0B1CF0E9467012092060162
S1130230C882D982EA82FB828C829D82AE82BF828E
S1130240488659866A867B868DEC9CECACE4BFE3D9
S11302508C879D87AE87BF8786E696E6A6E6BFE3D2
S1130260888B998BAA8BBB8BCC8ADD8AEE8AFF8A1A
S1130270C88ED98EEA8EFB8ECC8EDD8EEE8EFF8EEE
S1130280C8A2D9A2EAA2FBA20E945A0101E010E08E
S11302907CCFE1E8F0E0808188608083EFE6F0E0E5
S11302A080818260808381E090E0909389008093D4
S11302B0880008951092850010928400E1E8F0E02F
S11302C080818560808380818D7F80830895E1E8CB
S11302D0F0E08081887F8083089584B5826084BD46
S11302E084B58E7F84BD85B5887085BDEEE6F0E06B
S11302F08081826080838AE087BD089516BC85B5BD
S1130300846085BD85B58C7F85BD089585B5887F5E
S113031085BD08958FEF8AB987B984B98BB988B937
S113032085B908959093C5008093C40088E18093B3
S1130330C10086E08093C2000895E0ECF0E0908173
S113034095FFFDCF8093C60008958F929F92AF9240
S1130350BF92CF92DF92EF92FF92CF93DF9341153A
S1130360510561057105A1F04A015B01C82FD92F20
S1130370C12CD12C760189910E949D018FEFC81A5E
S1130380D80AE80AF80A8C149D04AE04BF0499F74D
S1130390DF91CF91FF90EF90DF90CF90BF90AF901F
S11303A09F908F900895CF92DF92EF92FF92AC01CD
S11303B0892B31F4FB011082C12CD12C760132C07F
S11303C0FB01C12CD12C76019A01ADECBCEC0E944E
S11303D0EA049695879596958795969587959C01B9
S11303E0220F331F880F991F880F991F880F991F99
S11303F0820F931F9A01281B390BC901805D8193D9
S11304009A010E94EA04AC01569547955695479582
S1130410569547953FEFC31AD30AE30AF30A4115E9
S1130420510591F6C701B601FF90EF90DF90CF9090
S11304300895CF93DF93CDB7DEB72A970FB6F8941C
S1130440DEBF0FBECDBFBE016F5F7F4F0E94D301E1
S1130450AB01BC01CE0101960E94A5012A960FB6FC
S1130460F894DEBF0FBECDBFDF91CF9108951F92E8
S11304700F920FB60F9211242F933F934F935F93D4
S11304806F937F938F939F93AF93BF93EF93FF9358
S11304908091060190E00E941902809100019091E0
S11304A00101009799F58BB1837C8BB9E09102012E
S11304B0F0910301EE0FFF1FEE0FFF1FE55FFE4FEC
S11304C0208131814281538160E070E080E89FE3C4
S11304D00E94160320E030E048E152E40E946904DF
S11304E00E948803709389006093880081E090E003
S11304F09093010180930001809104019091050182
S1130500019690930501809304012FC0019769F52A
S113051080910601811104C08BB18C608BB905C038
S1130520813019F48BB180638BB90E947E01E09114
S11305300201F0910301EE0FFF1FEE0FFF1FE55FB5
S1130540FE4F20E030E048E152E460817181828115
S113055093810E9469040E948803709389006093C8
S11305608800109201011092000180910401909181
S113057005010A9789F410920501109204018091F3
S1130580020190910301019669E070E00E94D60493
S11305909093030180930201FF91EF91BF91AF917A
S11305A09F918F917F916F915F914F913F912F9187
S11305B00F900FBE0F901F9018951F920F920FB6B9
S11305C00F9211242F933F934F935F936F937F93D5
S11305D08F939F93AF93BF93EF93FF9381E08093A7
S11305E007010E948601FF91EF91BF91AF919F9106
S11305F08F917F916F915F914F913F912F910F90C8
S11306000FBE0F901F9018950E9453000E9449013D
S11306100E946D010E948A0183E390E00E9492018E
S113062078940E949D0080E090E008955058BB2784
S1130630AA270E942E030C942F040E94210438F050
S11306400E94280420F039F49F3F19F426F40C94F6
S11306501E040EF4E095E7FB0C941804E92F0E94A5
S1130660400458F3BA17620773078407950720F00C
S113067079F4A6F50C9462040EF4E0950B2EBA2FCF
S1130680A02D0B01B90190010C01CA01A001112494
S1130690FF27591B99F0593F50F4503E68F11A1640
S11306A0F040A22F232F342F4427585FF3CF4695D1
S11306B037952795A795F0405395C9F77EF41F16F3
S11306C0BA0B620B730B840BBAF09150A1F0FF0FBD
S11306D0BB1F661F771F881FC2F70EC0BA0F621FA9
S11306E0731F841F48F4879577956795B795F79599
S11306F09E3F08F0B0CF9395880F08F09927EE0F2E
S11307009795879508950E94F40308F481E008956D
S11307100E94480488F09F5798F0B92F9927B75141
S1130720B0F0E1F0660F771F881F991F1AF0BA9591
S1130730C9F714C0B13091F00E946204B1E0089589
S11307400C946204672F782F8827B85F39F0B93F7B
S1130750CCF3869577956795B395D9F73EF4909544
S11307608095709561957F4F8F4F9F4F0895E894C2
S113077009C097FB3EF490958095709561957F4FE5
S11307808F4F9F4F9923A9F0F92F96E9BB27939593
S1130790F695879577956795B795F111F8CFFAF4A3
S11307A0BB0F11F460FF1BC06F5F7F4F8F4F9F4FD4
S11307B016C0882311F096E911C0772321F09EE832
S11307C0872F762F05C0662371F096E8862F70E098
S11307D060E02AF09A95660F771F881FDAF7880F72
S11307E09695879597F90895990F0008550FAA0BC8
S11307F0E0E8FEEF16161706E807F907C0F0121630
S11308001306E407F50798F0621B730B840B950B32
S113081039F40A2661F0232B242B252B21F4089587
S11308200A2609F4A140A6958FEF811D811D089524
S113083097F99F6780E870E060E008959FEF80EC8F
S1130840089500240A941616170618060906089532
S113085000240A9412161306140605060895092E98
S11308600394000C11F4882352F0BB0F40F4BF2B07
S113087011F460FF04C06F5F7F4F8F4F9F4F089547
S113088057FD9058440F551F59F05F3F71F047953D
S1130890880F97FB991F61F09F3F79F08795089522
S11308A0121613061406551FF2CF4695F1DF08C041
S11308B0161617061806991FF1CF8695710561055E
S11308C008940895E894BB2766277727CB0197F906
S11308D008950E947C040C942F040E94210438F093
S11308E00E94280420F0952311F00C9418040C9411
S11308F01E0411240C9463040E94400470F3959F19
S1130900C1F3950F50E0551F629FF001729FBB2702
S1130910F00DB11D639FAA27F00DB11DAA1F649F9E
S11309206627B00DA11D661F829F2227B00DA11D51
S1130930621F739FB00DA11D621F839FA00D611DD7
S1130940221F749F3327A00D611D231F849F600DF8
S1130950211D822F762F6A2F11249F5750409AF021
S1130960F1F088234AF0EE0FFF1FBB1F661F771FAD
S1130970881F91505040A9F79E3F510580F00C9478
S113098018040C9463045F3FE4F3983ED4F3869513
S113099077956795B795F795E7959F5FC1F7FE2B18
S11309A0880F911D9695879597F9089597FB072EC3
S11309B016F4009407D077FD09D00E94F90407FCCF
S11309C005D03EF4909581959F4F0895709561955B
S11309D07F4F0895A29FB001B39FC001A39F700DE4
S11309E0811D1124911DB29F700D811D1124911D33
S11309F00895AA1BBB1B51E107C0AA1FBB1FA61762
S1130A00B70710F0A61BB70B881F991F5A95A9F7B3
S1110A1080959095BC01CD010895F894FFCF18
S1050A1E0100D1
S9030000FC
